{
  "contractName": "Punto0",
  "abi": [
    {
      "constant": true,
      "inputs": [
        {
          "name": "",
          "type": "uint256"
        }
      ],
      "name": "order",
      "outputs": [
        {
          "name": "idRichiesta",
          "type": "uint256"
        },
        {
          "name": "name",
          "type": "string"
        },
        {
          "name": "quality",
          "type": "uint256"
        },
        {
          "name": "fornitore",
          "type": "address"
        },
        {
          "name": "timestamp",
          "type": "uint256"
        },
        {
          "name": "spedito",
          "type": "bool"
        },
        {
          "name": "checkCir",
          "type": "bool"
        }
      ],
      "payable": false,
      "stateMutability": "view",
      "type": "function"
    },
    {
      "constant": true,
      "inputs": [],
      "name": "orderCount",
      "outputs": [
        {
          "name": "",
          "type": "uint256"
        }
      ],
      "payable": false,
      "stateMutability": "view",
      "type": "function"
    },
    {
      "constant": true,
      "inputs": [
        {
          "name": "",
          "type": "uint256"
        }
      ],
      "name": "existRequest",
      "outputs": [
        {
          "name": "",
          "type": "bool"
        }
      ],
      "payable": false,
      "stateMutability": "view",
      "type": "function"
    },
    {
      "constant": true,
      "inputs": [
        {
          "name": "",
          "type": "uint256"
        }
      ],
      "name": "valueOfBid",
      "outputs": [
        {
          "name": "",
          "type": "uint256"
        }
      ],
      "payable": false,
      "stateMutability": "view",
      "type": "function"
    },
    {
      "constant": true,
      "inputs": [
        {
          "name": "",
          "type": "uint256"
        }
      ],
      "name": "requestToOrder",
      "outputs": [
        {
          "name": "",
          "type": "uint256"
        }
      ],
      "payable": false,
      "stateMutability": "view",
      "type": "function"
    },
    {
      "constant": true,
      "inputs": [],
      "name": "prova1",
      "outputs": [
        {
          "name": "",
          "type": "string"
        }
      ],
      "payable": false,
      "stateMutability": "view",
      "type": "function"
    },
    {
      "constant": true,
      "inputs": [],
      "name": "requestCount",
      "outputs": [
        {
          "name": "",
          "type": "uint256"
        }
      ],
      "payable": false,
      "stateMutability": "view",
      "type": "function"
    },
    {
      "constant": true,
      "inputs": [],
      "name": "bidderCount",
      "outputs": [
        {
          "name": "",
          "type": "uint256"
        }
      ],
      "payable": false,
      "stateMutability": "view",
      "type": "function"
    },
    {
      "constant": true,
      "inputs": [
        {
          "name": "",
          "type": "address"
        }
      ],
      "name": "alreadyBidder",
      "outputs": [
        {
          "name": "",
          "type": "bool"
        }
      ],
      "payable": false,
      "stateMutability": "view",
      "type": "function"
    },
    {
      "constant": true,
      "inputs": [
        {
          "name": "",
          "type": "uint256"
        }
      ],
      "name": "bidder",
      "outputs": [
        {
          "name": "idRichiesta",
          "type": "uint256"
        },
        {
          "name": "offerente",
          "type": "address"
        },
        {
          "name": "prezzo",
          "type": "uint256"
        },
        {
          "name": "quality",
          "type": "uint256"
        },
        {
          "name": "vincente",
          "type": "bool"
        },
        {
          "name": "terminata",
          "type": "bool"
        }
      ],
      "payable": false,
      "stateMutability": "view",
      "type": "function"
    },
    {
      "constant": true,
      "inputs": [
        {
          "name": "",
          "type": "uint256"
        }
      ],
      "name": "winnerOf",
      "outputs": [
        {
          "name": "",
          "type": "uint256"
        }
      ],
      "payable": false,
      "stateMutability": "view",
      "type": "function"
    },
    {
      "constant": true,
      "inputs": [],
      "name": "owner",
      "outputs": [
        {
          "name": "",
          "type": "address"
        }
      ],
      "payable": false,
      "stateMutability": "view",
      "type": "function"
    },
    {
      "constant": true,
      "inputs": [
        {
          "name": "",
          "type": "uint256"
        }
      ],
      "name": "request",
      "outputs": [
        {
          "name": "id",
          "type": "uint256"
        },
        {
          "name": "name",
          "type": "string"
        },
        {
          "name": "quality",
          "type": "uint256"
        },
        {
          "name": "timestamp",
          "type": "uint256"
        },
        {
          "name": "attiva",
          "type": "bool"
        }
      ],
      "payable": false,
      "stateMutability": "view",
      "type": "function"
    },
    {
      "inputs": [],
      "payable": false,
      "stateMutability": "nonpayable",
      "type": "constructor"
    },
    {
      "constant": false,
      "inputs": [
        {
          "name": "_name",
          "type": "string"
        },
        {
          "name": "_quality",
          "type": "uint256"
        }
      ],
      "name": "addRequest",
      "outputs": [],
      "payable": false,
      "stateMutability": "nonpayable",
      "type": "function"
    },
    {
      "constant": false,
      "inputs": [
        {
          "name": "_idRichiesta",
          "type": "uint256"
        },
        {
          "name": "_offerta",
          "type": "uint256"
        },
        {
          "name": "_quality",
          "type": "uint256"
        }
      ],
      "name": "addOffer",
      "outputs": [],
      "payable": false,
      "stateMutability": "nonpayable",
      "type": "function"
    },
    {
      "constant": false,
      "inputs": [
        {
          "name": "_idRichiesta",
          "type": "uint256"
        },
        {
          "name": "_offerta",
          "type": "uint256"
        },
        {
          "name": "_quality",
          "type": "uint256"
        }
      ],
      "name": "addOfferPay",
      "outputs": [],
      "payable": true,
      "stateMutability": "payable",
      "type": "function"
    },
    {
      "constant": false,
      "inputs": [
        {
          "name": "_idRichiesta",
          "type": "uint256"
        }
      ],
      "name": "endRequest",
      "outputs": [],
      "payable": false,
      "stateMutability": "nonpayable",
      "type": "function"
    },
    {
      "constant": false,
      "inputs": [
        {
          "name": "_idRichiesta",
          "type": "uint256"
        }
      ],
      "name": "checkFornitore",
      "outputs": [],
      "payable": false,
      "stateMutability": "nonpayable",
      "type": "function"
    },
    {
      "constant": false,
      "inputs": [
        {
          "name": "_idRichiesta",
          "type": "uint256"
        },
        {
          "name": "_check",
          "type": "bool"
        }
      ],
      "name": "checkCir",
      "outputs": [],
      "payable": false,
      "stateMutability": "nonpayable",
      "type": "function"
    }
  ],
  "bytecode": "0x608060405234801561001057600080fd5b50336000806101000a81548173ffffffffffffffffffffffffffffffffffffffff021916908373ffffffffffffffffffffffffffffffffffffffff160217905550611bb5806100606000396000f3fe608060405260043610610131576000357c0100000000000000000000000000000000000000000000000000000000900480635badbe4c116100bd5780638da5cb5b116100815780638da5cb5b1461067457806392b36936146106cb5780639c199da31461079d5780639d6040f1146107d8578063d845a4b31461081f57610131565b80635badbe4c146104c057806370d29c11146104eb5780637a8eb68c146105165780638b3a5fd91461057f5780638cb5d7001461062557610131565b80632824aeed116101045780632824aeed1461030157806332010df8146103505780633b3e328b1461039f57806350e71800146103ee578063530dd0d11461043057610131565b806317f440481461013657806321603f43146101715780632453ffa81461028357806324a68ad4146102ae575b600080fd5b34801561014257600080fd5b5061016f6004803603602081101561015957600080fd5b81019080803590602001909291905050506108f3565b005b34801561017d57600080fd5b506101aa6004803603602081101561019457600080fd5b8101908080359060200190929190505050610a34565b60405180888152602001806020018781526020018673ffffffffffffffffffffffffffffffffffffffff1673ffffffffffffffffffffffffffffffffffffffff1681526020018581526020018415151515815260200183151515158152602001828103825288818151815260200191508051906020019080838360005b83811015610242578082015181840152602081019050610227565b50505050905090810190601f16801561026f5780820380516001836020036101000a031916815260200191505b509850505050505050505060405180910390f35b34801561028f57600080fd5b50610298610b48565b6040518082815260200191505060405180910390f35b3480156102ba57600080fd5b506102e7600480360360208110156102d157600080fd5b8101908080359060200190929190505050610b4e565b604051808215151515815260200191505060405180910390f35b34801561030d57600080fd5b5061033a6004803603602081101561032457600080fd5b8101908080359060200190929190505050610b6e565b6040518082815260200191505060405180910390f35b34801561035c57600080fd5b506103896004803603602081101561037357600080fd5b8101908080359060200190929190505050610b86565b6040518082815260200191505060405180910390f35b3480156103ab57600080fd5b506103ec600480360360608110156103c257600080fd5b81019080803590602001909291908035906020019092919080359060200190929190505050610b9e565b005b61042e6004803603606081101561040457600080fd5b81019080803590602001909291908035906020019092919080359060200190929190505050610d65565b005b34801561043c57600080fd5b50610445611019565b6040518080602001828103825283818151815260200191508051906020019080838360005b8381101561048557808201518184015260208101905061046a565b50505050905090810190601f1680156104b25780820380516001836020036101000a031916815260200191505b509250505060405180910390f35b3480156104cc57600080fd5b506104d56110b7565b6040518082815260200191505060405180910390f35b3480156104f757600080fd5b506105006110bd565b6040518082815260200191505060405180910390f35b34801561052257600080fd5b506105656004803603602081101561053957600080fd5b81019080803573ffffffffffffffffffffffffffffffffffffffff1690602001909291905050506110c3565b604051808215151515815260200191505060405180910390f35b34801561058b57600080fd5b506105b8600480360360208110156105a257600080fd5b81019080803590602001909291905050506110e3565b604051808781526020018673ffffffffffffffffffffffffffffffffffffffff1673ffffffffffffffffffffffffffffffffffffffff1681526020018581526020018481526020018315151515815260200182151515158152602001965050505050505060405180910390f35b34801561063157600080fd5b5061065e6004803603602081101561064857600080fd5b8101908080359060200190929190505050611159565b6040518082815260200191505060405180910390f35b34801561068057600080fd5b50610689611171565b604051808273ffffffffffffffffffffffffffffffffffffffff1673ffffffffffffffffffffffffffffffffffffffff16815260200191505060405180910390f35b3480156106d757600080fd5b5061079b600480360360408110156106ee57600080fd5b810190808035906020019064010000000081111561070b57600080fd5b82018360208201111561071d57600080fd5b8035906020019184600183028401116401000000008311171561073f57600080fd5b91908080601f016020809104026020016040519081016040528093929190818152602001838380828437600081840152601f19601f82011690508083019250505050505050919291929080359060200190929190505050611196565b005b3480156107a957600080fd5b506107d6600480360360208110156107c057600080fd5b8101908080359060200190929190505050611310565b005b3480156107e457600080fd5b5061081d600480360360408110156107fb57600080fd5b81019080803590602001909291908035151590602001909291905050506113de565b005b34801561082b57600080fd5b506108586004803603602081101561084257600080fd5b8101908080359060200190929190505050611528565b604051808681526020018060200185815260200184815260200183151515158152602001828103825286818151815260200191508051906020019080838360005b838110156108b4578082015181840152602081019050610899565b50505050905090810190601f1680156108e15780820380516001836020036101000a031916815260200191505b50965050505050505060405180910390f35b6000809054906101000a900473ffffffffffffffffffffffffffffffffffffffff1673ffffffffffffffffffffffffffffffffffffffff163373ffffffffffffffffffffffffffffffffffffffff1614151561094e57600080fd5b60008111801561096057506007548111155b151561096b57600080fd5b60016006600083815260200190815260200160002060040160006101000a81548160ff021916908315150217905515156109a457600080fd5b60006006600083815260200190815260200160002060040160006101000a81548160ff02191690831515021790555060006109de82611603565b9050600180600083815260200190815260200160002060040160006101000a81548160ff021916908315150217905550806005600084815260200190815260200160002081905550610a30828261183a565b5050565b6009602052806000526040600020600091509050806000015490806001018054600181600116156101000203166002900480601f016020809104026020016040519081016040528092919081815260200182805460018160011615610100020316600290048015610ae65780601f10610abb57610100808354040283529160200191610ae6565b820191906000526020600020905b815481529060010190602001808311610ac957829003601f168201915b5050505050908060020154908060030160009054906101000a900473ffffffffffffffffffffffffffffffffffffffff16908060040154908060050160009054906101000a900460ff16908060050160019054906101000a900460ff16905087565b600a5481565b60086020528060005260406000206000915054906101000a900460ff1681565b600b6020528060005260406000206000915090505481565b600c6020528060005260406000206000915090505481565b600083118015610bb057506007548311155b1515610bbb57600080fd5b6006600084815260200190815260200160002060040160009054906101000a900460ff161515610bea57600080fd5b60066000600754815260200190815260200160002060040160009054906101000a900460ff161515610c1b57600080fd5b60026000815480929190600101919050555060c0604051908101604052808481526020013373ffffffffffffffffffffffffffffffffffffffff168152602001838152602001828152602001600015158152602001600015158152506001600060025481526020019081526020016000206000820151816000015560208201518160010160006101000a81548173ffffffffffffffffffffffffffffffffffffffff021916908373ffffffffffffffffffffffffffffffffffffffff160217905550604082015181600201556060820151816003015560808201518160040160006101000a81548160ff02191690831515021790555060a08201518160040160016101000a81548160ff02191690831515021790555090505060016008600085815260200190815260200160002060006101000a81548160ff021916908315150217905550505050565b600083111515610ddd576040517f08c379a000000000000000000000000000000000000000000000000000000000815260040180806020018281038252601f8152602001807f6d657373616765206572726f723a205f6964526963686965737461203e20300081525060200191505060405180910390fd5b6007548311151515610e3a576040517f08c379a000000000000000000000000000000000000000000000000000000000815260040180806020018281038252602b815260200180611b34602b913960400191505060405180910390fd5b6006600084815260200190815260200160002060040160009054906101000a900460ff161515610eb5576040517f08c379a000000000000000000000000000000000000000000000000000000000815260040180806020018281038252602b815260200180611b5f602b913960400191505060405180910390fd5b60026000815480929190600101919050555034600b600060025481526020019081526020016000208190555060c0604051908101604052808481526020013373ffffffffffffffffffffffffffffffffffffffff168152602001838152602001828152602001600015158152602001600015158152506001600060025481526020019081526020016000206000820151816000015560208201518160010160006101000a81548173ffffffffffffffffffffffffffffffffffffffff021916908373ffffffffffffffffffffffffffffffffffffffff160217905550604082015181600201556060820151816003015560808201518160040160006101000a81548160ff02191690831515021790555060a08201518160040160016101000a81548160ff02191690831515021790555090505060016008600085815260200190815260200160002060006101000a81548160ff021916908315150217905550505050565b60038054600181600116156101000203166002900480601f0160208091040260200160405190810160405280929190818152602001828054600181600116156101000203166002900480156110af5780601f10611084576101008083540402835291602001916110af565b820191906000526020600020905b81548152906001019060200180831161109257829003601f168201915b505050505081565b60075481565b60025481565b60046020528060005260406000206000915054906101000a900460ff1681565b60016020528060005260406000206000915090508060000154908060010160009054906101000a900473ffffffffffffffffffffffffffffffffffffffff16908060020154908060030154908060040160009054906101000a900460ff16908060040160019054906101000a900460ff16905086565b60056020528060005260406000206000915090505481565b6000809054906101000a900473ffffffffffffffffffffffffffffffffffffffff1681565b6000809054906101000a900473ffffffffffffffffffffffffffffffffffffffff1673ffffffffffffffffffffffffffffffffffffffff163373ffffffffffffffffffffffffffffffffffffffff1614151561125a576040517f08c379a000000000000000000000000000000000000000000000000000000000815260040180806020018281038252601c8152602001807f6d657373616765206572726f723a206e6f6e20736569206f776e65720000000081525060200191505060405180910390fd5b60076000815480929190600101919050555060a0604051908101604052806007548152602001838152602001828152602001428152602001600115158152506006600060075481526020019081526020016000206000820151816000015560208201518160010190805190602001906112d4929190611a8e565b50604082015181600201556060820151816003015560808201518160040160006101000a81548160ff0219169083151502179055509050505050565b600160006005600084815260200190815260200160002054815260200190815260200160002060010160009054906101000a900473ffffffffffffffffffffffffffffffffffffffff1673ffffffffffffffffffffffffffffffffffffffff163373ffffffffffffffffffffffffffffffffffffffff1614151561139357600080fd5b6000600c600083815260200190815260200160002054905060016009600083815260200190815260200160002060050160006101000a81548160ff0219169083151502179055505050565b6000809054906101000a900473ffffffffffffffffffffffffffffffffffffffff1673ffffffffffffffffffffffffffffffffffffffff163373ffffffffffffffffffffffffffffffffffffffff1614151561143957600080fd5b6000600c60008481526020019081526020016000205490506001151582151514156115225760016009600083815260200190815260200160002060050160016101000a81548160ff0219169083151502179055506001600082815260200190815260200160002060010160009054906101000a900473ffffffffffffffffffffffffffffffffffffffff1673ffffffffffffffffffffffffffffffffffffffff166108fc600b6000848152602001908152602001600020549081150290604051600060405180830381858888f1935050505015801561151c573d6000803e3d6000fd5b50611523565b5b505050565b6006602052806000526040600020600091509050806000015490806001018054600181600116156101000203166002900480601f0160208091040260200160405190810160405280929190818152602001828054600181600116156101000203166002900480156115da5780601f106115af576101008083540402835291602001916115da565b820191906000526020600020905b8154815290600101906020018083116115bd57829003601f168201915b5050505050908060020154908060030154908060040160009054906101000a900460ff16905085565b600080600080600190506000600190505b6002548111151561182e578560016000838152602001908152602001600020600001541415611821578260016000838152602001908152602001600020600201541080611665575060011515821515145b15611746576001600082815260200190815260200160002060020154925060001515821515141561173a576001600085815260200190815260200160002060010160009054906101000a900473ffffffffffffffffffffffffffffffffffffffff1673ffffffffffffffffffffffffffffffffffffffff166108fc600b6000878152602001908152602001600020549081150290604051600060405180830381858888f1935050505015801561171f573d6000803e3d6000fd5b506000600b6000868152602001908152602001600020819055505b809350600091506117f0565b6001600082815260200190815260200160002060010160009054906101000a900473ffffffffffffffffffffffffffffffffffffffff1673ffffffffffffffffffffffffffffffffffffffff166108fc600b6000848152602001908152602001600020549081150290604051600060405180830381858888f193505050501580156117d5573d6000803e3d6000fd5b506000600b6000838152602001908152602001600020819055505b6001806000600254815260200190815260200160002060040160016101000a81548160ff0219169083151502179055505b8080600101915050611614565b50829350505050919050565b600a6000815480929190600101919050555060e060405190810160405280838152602001600660008581526020019081526020016000206001018054600181600116156101000203166002900480601f0160208091040260200160405190810160405280929190818152602001828054600181600116156101000203166002900480156119085780601f106118dd57610100808354040283529160200191611908565b820191906000526020600020905b8154815290600101906020018083116118eb57829003601f168201915b50505050508152602001600160008481526020019081526020016000206003015481526020016001600084815260200190815260200160002060010160009054906101000a900473ffffffffffffffffffffffffffffffffffffffff1673ffffffffffffffffffffffffffffffffffffffff1681526020014281526020016000151581526020016000151581525060096000600a5481526020019081526020016000206000820151816000015560208201518160010190805190602001906119d1929190611a8e565b506040820151816002015560608201518160030160006101000a81548173ffffffffffffffffffffffffffffffffffffffff021916908373ffffffffffffffffffffffffffffffffffffffff1602179055506080820151816004015560a08201518160050160006101000a81548160ff02191690831515021790555060c08201518160050160016101000a81548160ff021916908315150217905550905050600a54600c6000848152602001908152602001600020819055505050565b828054600181600116156101000203166002900490600052602060002090601f016020900481019282601f10611acf57805160ff1916838001178555611afd565b82800160010185558215611afd579182015b82811115611afc578251825591602001919060010190611ae1565b5b509050611b0a9190611b0e565b5090565b611b3091905b80821115611b2c576000816000905550600101611b14565b5090565b9056fe6d657373616765206572726f723a205f6964526963686965737461203c3d2072657175657374436f756e746d657373616765206572726f723a20726571756573745b5f69645269636869657374615d2e617474697661a165627a7a72305820488e05a7353f1f73b8a37cd18d414d4c78eec2cbfd561e3575d008cd5af5852a0029",
  "source": "pragma solidity ^0.5.0;\n\ncontract Punto0 {\n\n    struct Offerta{\n        uint idRichiesta;\n        address payable offerente;\n        uint prezzo;\n        uint quality;\n        bool vincente;\n        bool terminata;\n    }\n\n    struct Richiesta{\n        uint id;\n        string name;\n        uint quality;\n        uint timestamp;\n        bool attiva;\n    }\n\n    struct Ordine{\n      uint idRichiesta;\n      string name;\n      uint quality;\n      address fornitore;\n      uint timestamp;\n      bool spedito;\n      bool checkCir;\n    }\n\n    //creatore del contratto, Cir in questo caso, sarà l'unico autorizzato ad accedere a determinate funzioni\n    address public owner;\n\n\n\n    //mapping delle offerte, uint indici delle offerte; bidder[uint]\n    mapping(uint => Offerta) public bidder;\n    uint public bidderCount;\n\n    string public prova1;\n\n    mapping(address => bool) public alreadyBidder;\n\n    //mapping delle offerte vincitrici per ogni richiesta, indici delle richieste corrispondono idici offerte vincenti\n    mapping(uint => uint) public winnerOf;\n\n\n    //ad ogni intero corrisponde una richiesta, mappa delle richieste, request[uint]\n    mapping(uint => Richiesta) public request;\n    uint public requestCount;\n\n\n    //almeno un'offerta per ogni Richiesta, stesso array di request che torna bool(superfluo)\n    mapping(uint => bool) public existRequest;\n\n    //mapping degli indici degli ordini, order[uint]\n    mapping(uint => Ordine) public order;\n    uint public orderCount;\n\n    //mapping indici offerte e relativi value\n    mapping(uint => uint) public valueOfBid;\n\n\n    //da id richiesta e id ordine, indice richiesta corrisponde indice ordine, request[uint1]->order[uint2]\n    mapping(uint => uint) public requestToOrder;\n\n\n    constructor() public {\n        owner= msg.sender;\n        /////new try\n        //addRequest(\"sale\", 1);\n    }\n\n\n    //  event\n        /*event offertEvent (\n            uint indexed _requestId\n        );*/\n\n    //variabili locali con _\n    function addRequest (string memory _name, uint _quality) public              {\n        require(msg.sender == owner, \"message error: non sei owner\");\n        //require(_quality >=1 && _quality <=5, \"message error: _idRichiesta > 0\");\n        requestCount++;\n        request[requestCount] = Richiesta(requestCount, _name, _quality, block.timestamp, true);\n    }\n\n\n    function addOffer(uint _idRichiesta, uint _offerta, uint _quality) public{\n        require(_idRichiesta > 0 && _idRichiesta <= requestCount);\n        require(request[_idRichiesta].attiva);\n        require(request[requestCount].attiva);\n\n        bidderCount++;\n        bidder[bidderCount] = Offerta(_idRichiesta, msg.sender, _offerta, _quality, false, false);\n        existRequest[_idRichiesta] = true;\n\n        //emit offertEvent(_idRichiesta);\n    }\n\n\n    function addOfferPay(uint _idRichiesta, uint _offerta, uint _quality) public payable{\n\n        require(_idRichiesta > 0, \"message error: _idRichiesta > 0\");\n        require(_idRichiesta <= requestCount, \"message error: _idRichiesta <= requestCount\");\n        require(request[_idRichiesta].attiva, \"message error: request[_idRichiesta].attiva\");\n        bidderCount++;\n        valueOfBid[bidderCount]= msg.value;\n        bidder[bidderCount] = Offerta(_idRichiesta, msg.sender, _offerta, _quality, false, false);\n        existRequest[_idRichiesta] = true;\n        //emit offertEvent(_idRichiesta);\n    }\n\n\n\n    //chiudi richiesta, al momneto manuale ma si può automatizzare\n    function endRequest(uint _idRichiesta) public{\n      require(msg.sender == owner);\n      require(_idRichiesta > 0 && _idRichiesta <= requestCount);\n      require(request[_idRichiesta].attiva = true);\n\n\n      request[_idRichiesta].attiva = false;\n      uint vincitore = selectWinner(_idRichiesta);\n      bidder[vincitore].vincente = true;\n      winnerOf[_idRichiesta] = vincitore;\n      emettiOrdine(_idRichiesta, vincitore);\n    }\n\n\n\n    function selectWinner(uint _idRichiesta) private returns (uint){\n        uint vincitore;\n        uint prezzoMinore;\n        bool primogiro=true;\n        //si elaborano tutte le offerte relative a quella richiesta.\n        //totalmente inefficiente, momentaneo\n        for(uint i=1; i <= bidderCount; i++ ){\n            //se offerta relativa alla richiesta in esame\n            if (bidder[i].idRichiesta == _idRichiesta){\n            //se offerta migliore della precedente\n            if (bidder[i].prezzo < prezzoMinore || primogiro==true){\n                prezzoMinore = bidder[i].prezzo;\n                if (primogiro == false){\n                //se non vincente restituisce caparra\n                bidder[vincitore].offerente.transfer(valueOfBid[vincitore]);\n                valueOfBid[vincitore] = 0;\n                }\n                vincitore = i;\n                primogiro=false;\n            }\n            else {\n            bidder[i].offerente.transfer(valueOfBid[i]);\n            valueOfBid[i]=0;\n            }\n            //inutile:\n            bidder[bidderCount].terminata = true;\n            }\n        }\n        return vincitore;\n    }\n\n    //al momento della chiusura della richiesta vengono elaborati i dati del vincitore e viene emesso l'ordine\n    function emettiOrdine(uint _idRichiesta, uint _idOfferta) private {\n        orderCount++;\n        order[orderCount] = Ordine(_idRichiesta, request[_idRichiesta].name, bidder[_idOfferta].quality, bidder[_idOfferta].offerente, block.timestamp, false, false );\n        requestToOrder[_idRichiesta] = orderCount;\n    }\n\n    //il fornitore riceve l'ordine, lo elabora e lo spedisce, vi accede tramite l'id della richiesta iniziale\n    function checkFornitore (uint _idRichiesta) public {\n        require(msg.sender == bidder[winnerOf[_idRichiesta]].offerente);\n        uint idOrder = requestToOrder[_idRichiesta];\n        order[idOrder].spedito = true;\n    }\n\n    //magazziniere, che per il momento ha lo stesso address dell'ufficio acquisti riceve la merce e certifica che sia tutto corretto\n    function checkCir (uint _idRichiesta, bool _check) public {\n        require(msg.sender == owner);\n        uint idOrder = requestToOrder[_idRichiesta];\n        if (_check == true){\n            order[idOrder].checkCir = true;\n            bidder[idOrder].offerente.transfer(valueOfBid[idOrder]);\n        }\n        else{\n            //scatena evento reclamo..\n        }\n    }\n\n}\n",
  "sourcePath": "/Users/simone/Desktop/POC_0.2/contracts/Punto0.sol",
  "compiler": {
    "name": "solc",
    "version": "0.5.3+commit.10d17f24.Emscripten.clang"
  },
  "schemaVersion": "3.0.0-beta.2",
  "updatedAt": "2019-02-13T09:49:03.763Z",
  "devdoc": {
    "methods": {}
  },
  "userdoc": {
    "methods": {}
  }
}