{
  "contractName": "ClientSide",
  "abi": [
    {
      "constant": true,
      "inputs": [],
      "name": "resul2",
      "outputs": [
        {
          "name": "",
          "type": "int256"
        }
      ],
      "payable": false,
      "stateMutability": "view",
      "type": "function",
      "signature": "0x14f54c38"
    },
    {
      "constant": true,
      "inputs": [],
      "name": "resul",
      "outputs": [
        {
          "name": "",
          "type": "uint256"
        }
      ],
      "payable": false,
      "stateMutability": "view",
      "type": "function",
      "signature": "0x55cc53fd"
    },
    {
      "constant": true,
      "inputs": [],
      "name": "rtoAddress",
      "outputs": [
        {
          "name": "",
          "type": "address"
        }
      ],
      "payable": false,
      "stateMutability": "view",
      "type": "function",
      "signature": "0x7bc3cb4f"
    },
    {
      "constant": true,
      "inputs": [
        {
          "name": "",
          "type": "uint256"
        }
      ],
      "name": "angle",
      "outputs": [
        {
          "name": "",
          "type": "uint256"
        }
      ],
      "payable": false,
      "stateMutability": "view",
      "type": "function",
      "signature": "0x96a2e272"
    },
    {
      "constant": true,
      "inputs": [
        {
          "name": "",
          "type": "uint256"
        }
      ],
      "name": "cos",
      "outputs": [
        {
          "name": "",
          "type": "uint256"
        }
      ],
      "payable": false,
      "stateMutability": "view",
      "type": "function",
      "signature": "0xa58b00ba"
    },
    {
      "constant": true,
      "inputs": [
        {
          "name": "",
          "type": "uint256"
        }
      ],
      "name": "controll",
      "outputs": [
        {
          "name": "",
          "type": "int256"
        }
      ],
      "payable": false,
      "stateMutability": "view",
      "type": "function",
      "signature": "0xdf7f6d11"
    },
    {
      "constant": true,
      "inputs": [
        {
          "name": "",
          "type": "uint256"
        }
      ],
      "name": "controll2",
      "outputs": [
        {
          "name": "",
          "type": "int256"
        }
      ],
      "payable": false,
      "stateMutability": "view",
      "type": "function",
      "signature": "0xe0c36709"
    },
    {
      "constant": true,
      "inputs": [],
      "name": "farmAddress",
      "outputs": [
        {
          "name": "",
          "type": "address"
        }
      ],
      "payable": false,
      "stateMutability": "view",
      "type": "function",
      "signature": "0xf9da3f75"
    },
    {
      "inputs": [],
      "payable": false,
      "stateMutability": "nonpayable",
      "type": "constructor",
      "signature": "constructor"
    },
    {
      "constant": false,
      "inputs": [
        {
          "name": "_contractRTO",
          "type": "address"
        },
        {
          "name": "_contractFarm",
          "type": "address"
        }
      ],
      "name": "setAddress",
      "outputs": [],
      "payable": false,
      "stateMutability": "nonpayable",
      "type": "function",
      "signature": "0x3b58524d"
    },
    {
      "constant": false,
      "inputs": [
        {
          "name": "_input",
          "type": "uint256"
        }
      ],
      "name": "up",
      "outputs": [
        {
          "name": "",
          "type": "uint256"
        }
      ],
      "payable": false,
      "stateMutability": "nonpayable",
      "type": "function",
      "signature": "0xa43285e0"
    },
    {
      "constant": false,
      "inputs": [
        {
          "name": "_input",
          "type": "uint256"
        }
      ],
      "name": "low",
      "outputs": [
        {
          "name": "",
          "type": "uint256"
        }
      ],
      "payable": false,
      "stateMutability": "nonpayable",
      "type": "function",
      "signature": "0x10c888cd"
    },
    {
      "constant": false,
      "inputs": [
        {
          "name": "_input",
          "type": "uint256"
        },
        {
          "name": "_low",
          "type": "uint256"
        },
        {
          "name": "_high",
          "type": "uint256"
        }
      ],
      "name": "sort",
      "outputs": [
        {
          "name": "",
          "type": "uint256"
        }
      ],
      "payable": false,
      "stateMutability": "nonpayable",
      "type": "function",
      "signature": "0xcb45e592"
    },
    {
      "constant": false,
      "inputs": [
        {
          "name": "_input",
          "type": "uint256"
        }
      ],
      "name": "sort2",
      "outputs": [
        {
          "name": "",
          "type": "uint256"
        }
      ],
      "payable": false,
      "stateMutability": "nonpayable",
      "type": "function",
      "signature": "0x406ae8db"
    },
    {
      "constant": false,
      "inputs": [
        {
          "name": "_input",
          "type": "uint256"
        }
      ],
      "name": "findCos",
      "outputs": [
        {
          "name": "",
          "type": "uint256"
        }
      ],
      "payable": false,
      "stateMutability": "nonpayable",
      "type": "function",
      "signature": "0x5077f6da"
    },
    {
      "constant": true,
      "inputs": [
        {
          "name": "_initial",
          "type": "uint256"
        }
      ],
      "name": "test",
      "outputs": [
        {
          "name": "",
          "type": "uint256"
        },
        {
          "name": "",
          "type": "uint256"
        },
        {
          "name": "",
          "type": "uint256"
        }
      ],
      "payable": false,
      "stateMutability": "pure",
      "type": "function",
      "signature": "0x29e99f07"
    },
    {
      "constant": true,
      "inputs": [
        {
          "name": "_cordinates",
          "type": "uint256"
        }
      ],
      "name": "splitCoordinates",
      "outputs": [
        {
          "name": "",
          "type": "uint256"
        },
        {
          "name": "",
          "type": "uint256"
        }
      ],
      "payable": false,
      "stateMutability": "pure",
      "type": "function",
      "signature": "0x96194695"
    },
    {
      "constant": true,
      "inputs": [],
      "name": "exstactionLat",
      "outputs": [
        {
          "name": "",
          "type": "uint256"
        }
      ],
      "payable": false,
      "stateMutability": "pure",
      "type": "function",
      "signature": "0x650402ae"
    },
    {
      "constant": true,
      "inputs": [],
      "name": "exstactionLon",
      "outputs": [
        {
          "name": "",
          "type": "uint256"
        }
      ],
      "payable": false,
      "stateMutability": "pure",
      "type": "function",
      "signature": "0x77ca962f"
    },
    {
      "constant": true,
      "inputs": [
        {
          "name": "_cordinates",
          "type": "uint256"
        }
      ],
      "name": "toRadians",
      "outputs": [
        {
          "name": "",
          "type": "uint256"
        },
        {
          "name": "",
          "type": "uint256"
        }
      ],
      "payable": false,
      "stateMutability": "pure",
      "type": "function",
      "signature": "0xfc8bee66"
    },
    {
      "constant": true,
      "inputs": [
        {
          "name": "a",
          "type": "uint256"
        }
      ],
      "name": "test2",
      "outputs": [
        {
          "name": "",
          "type": "uint256"
        },
        {
          "name": "",
          "type": "uint256"
        },
        {
          "name": "",
          "type": "int256"
        }
      ],
      "payable": false,
      "stateMutability": "pure",
      "type": "function",
      "signature": "0xcaf44683"
    },
    {
      "constant": false,
      "inputs": [
        {
          "name": "_cordinates1",
          "type": "uint256"
        },
        {
          "name": "_cordinates2",
          "type": "uint256"
        }
      ],
      "name": "distance",
      "outputs": [
        {
          "name": "",
          "type": "int256"
        }
      ],
      "payable": false,
      "stateMutability": "nonpayable",
      "type": "function",
      "signature": "0xce89f063"
    },
    {
      "constant": true,
      "inputs": [
        {
          "name": "x",
          "type": "int256"
        }
      ],
      "name": "sqrt",
      "outputs": [
        {
          "name": "y",
          "type": "int256"
        }
      ],
      "payable": false,
      "stateMutability": "pure",
      "type": "function",
      "signature": "0x665df460"
    },
    {
      "constant": false,
      "inputs": [
        {
          "name": "_tokenId",
          "type": "uint256"
        }
      ],
      "name": "Delivery1",
      "outputs": [],
      "payable": true,
      "stateMutability": "payable",
      "type": "function",
      "signature": "0x14bfd7d7"
    }
  ],
  "bytecode": "0x608060405261e7cd600255620141cb60035534801561001d57600080fd5b50620143d760008061e7cd8152602001908152602001600020819055506201431460008061e92a8152602001908152602001600020819055506201424f60008061ea878152602001908152602001600020819055506201418960008061ebe4815260200190815260200160002081905550620140c260008061ed4181526020019081526020016000208190555062013ffb60008061ee9e81526020019081526020016000208190555062013f3260008061effb81526020019081526020016000208190555062013e6860008061f15881526020019081526020016000208190555062013d9e60008061f2b581526020019081526020016000208190555062013cd260008061f41281526020019081526020016000208190555062013c0560008061f56f81526020019081526020016000208190555062013b3860008061f6cc81526020019081526020016000208190555062013a6960008061f8298152602001908152602001600020819055506201399960008061f987815260200190815260200160002081905550620138c960008061fae4815260200190815260200160002081905550620137f760008061fc418152602001908152602001600020819055506201372460008061fd9e8152602001908152602001600020819055506201365160008061fefb8152602001908152602001600020819055506201357c60008062010058815260200190815260200160002081905550620134a7600080620101b5815260200190815260200160002081905550620133d160008062010312815260200190815260200160002081905550620132f96000806201046f81526020019081526020016000208190555062013221600080620105cc81526020019081526020016000208190555062013148600080620107298152602001908152602001600020819055506201306d6000806201088681526020019081526020016000208190555062012f92600080620109e381526020019081526020016000208190555062012eb660008062010b4081526020019081526020016000208190555062012dd960008062010c9d81526020019081526020016000208190555062012cfb60008062010dfb81526020019081526020016000208190555062012c1c60008062010f5881526020019081526020016000208190555062012b3c600080620110b581526020019081526020016000208190555062012a5b60008062011212815260200190815260200160002081905550620129796000806201136f81526020019081526020016000208190555062012897600080620114cc815260200190815260200160002081905550620127b360008062011629815260200190815260200160002081905550620126ce60008062011786815260200190815260200160002081905550620125e9600080620118e38152602001908152602001600020819055506201250360008062011a408152602001908152602001600020819055506201241b60008062011b9d8152602001908152602001600020819055506201233360008062011cfa8152602001908152602001600020819055506201224a60008062011e578152602001908152602001600020819055506201216060008062011fb4815260200190815260200160002081905550620120756000806201211181526020019081526020016000208190555062011f896000806201226f81526020019081526020016000208190555062011e9c600080620123cc81526020019081526020016000208190555062011daf6000806201252981526020019081526020016000208190555062011cc06000806201268681526020019081526020016000208190555062011bd1600080620127e381526020019081526020016000208190555062011ae160008062012940815260200190815260200160002081905550620119f060008062012a9d815260200190815260200160002081905550620118fd60008062012bfa8152602001908152602001600020819055506201180b60008062012d578152602001908152602001600020819055506201171760008062012eb481526020019081526020016000208190555062011622600080620130118152602001908152602001600020819055506201152d6000806201316e81526020019081526020016000208190555062011436600080620132cb8152602001908152602001600020819055506201133f6000806201342881526020019081526020016000208190555062011247600080620135858152602001908152602001600020819055506201114e600080620136e3815260200190815260200160002081905550620110546000806201384081526020019081526020016000208190555062010f596000806201399d81526020019081526020016000208190555062010e5e60008062013afa81526020019081526020016000208190555062010d6160008062013c5781526020019081526020016000208190555062010c6460008062013db481526020019081526020016000208190555062010b6660008062013f1181526020019081526020016000208190555062010a676000806201406e81526020019081526020016000208190555062010968600080620141cb81526020019081526020016000208190555061e7cd60016000600181526020019081526020016000208190555061e92a60016000600281526020019081526020016000208190555061ea8760016000600381526020019081526020016000208190555061ebe460016000600481526020019081526020016000208190555061ed4160016000600581526020019081526020016000208190555061ee9e60016000600681526020019081526020016000208190555061effb60016000600781526020019081526020016000208190555061f15860016000600881526020019081526020016000208190555061f2b560016000600981526020019081526020016000208190555061f41260016000600a81526020019081526020016000208190555061f56f60016000600b81526020019081526020016000208190555061f6cc60016000600c81526020019081526020016000208190555061f82960016000600d81526020019081526020016000208190555061f98760016000600e81526020019081526020016000208190555061fae460016000600f81526020019081526020016000208190555061fc4160016000601081526020019081526020016000208190555061fd9e60016000601181526020019081526020016000208190555061fefb60016000601281526020019081526020016000208190555062010058600160006013815260200190815260200160002081905550620101b5600160006014815260200190815260200160002081905550620103126001600060158152602001908152602001600020819055506201046f600160006016815260200190815260200160002081905550620105cc6001600060178152602001908152602001600020819055506201072960016000601881526020019081526020016000208190555062010886600160006019815260200190815260200160002081905550620109e360016000601a81526020019081526020016000208190555062010b4060016000601b81526020019081526020016000208190555062010c9d60016000601c81526020019081526020016000208190555062010dfb60016000601d81526020019081526020016000208190555062010f5860016000601e815260200190815260200160002081905550620110b560016000601f815260200190815260200160002081905550620112126001600060208152602001908152602001600020819055506201136f600160006021815260200190815260200160002081905550620114cc6001600060228152602001908152602001600020819055506201162960016000602381526020019081526020016000208190555062011786600160006024815260200190815260200160002081905550620118e360016000602581526020019081526020016000208190555062011a4060016000602681526020019081526020016000208190555062011b9d60016000602781526020019081526020016000208190555062011cfa60016000602881526020019081526020016000208190555062011e5760016000602981526020019081526020016000208190555062011fb460016000602a8152602001908152602001600020819055506201211160016000602b8152602001908152602001600020819055506201226f60016000602c815260200190815260200160002081905550620123cc60016000602d8152602001908152602001600020819055506201252960016000602e8152602001908152602001600020819055506201268660016000602f815260200190815260200160002081905550620127e36001600060308152602001908152602001600020819055506201294060016000603181526020019081526020016000208190555062012a9d60016000603281526020019081526020016000208190555062012bfa60016000603381526020019081526020016000208190555062012d5760016000603481526020019081526020016000208190555062012eb4600160006035815260200190815260200160002081905550620130116001600060368152602001908152602001600020819055506201316e600160006037815260200190815260200160002081905550620132cb600160006038815260200190815260200160002081905550620134286001600060398152602001908152602001600020819055506201358560016000603a815260200190815260200160002081905550620136e360016000603b8152602001908152602001600020819055506201384060016000603c8152602001908152602001600020819055506201399d60016000603d81526020019081526020016000208190555062013afa60016000603e81526020019081526020016000208190555062013c5760016000603f81526020019081526020016000208190555062013db460016000604081526020019081526020016000208190555062013f116001600060418152602001908152602001600020819055506201406e600160006042815260200190815260200160002081905550620141cb60016000604381526020019081526020016000208190555061137180610ef46000396000f3fe60806040526004361061015d576000357c0100000000000000000000000000000000000000000000000000000000900480637bc3cb4f116100d3578063cb45e5921161008c578063cb45e5921461063d578063ce89f063146106a0578063df7f6d11146106f9578063e0c3670914610748578063f9da3f7514610797578063fc8bee66146107ee5761015d565b80637bc3cb4f14610446578063961946951461049d57806396a2e272146104f3578063a43285e014610542578063a58b00ba14610591578063caf44683146105e05761015d565b8063406ae8db11610125578063406ae8db146102d85780635077f6da1461032757806355cc53fd14610376578063650402ae146103a1578063665df460146103cc57806377ca962f1461041b5761015d565b806310c888cd1461016257806314bfd7d7146101b157806314f54c38146101df57806329e99f071461020a5780633b58524d14610267575b600080fd5b34801561016e57600080fd5b5061019b6004803603602081101561018557600080fd5b8101908080359060200190929190505050610844565b6040518082815260200191505060405180910390f35b6101dd600480360360208110156101c757600080fd5b810190808035906020019092919050505061087d565b005b3480156101eb57600080fd5b506101f4610c4a565b6040518082815260200191505060405180910390f35b34801561021657600080fd5b506102436004803603602081101561022d57600080fd5b8101908080359060200190929190505050610c50565b60405180848152602001838152602001828152602001935050505060405180910390f35b34801561027357600080fd5b506102d66004803603604081101561028a57600080fd5b81019080803573ffffffffffffffffffffffffffffffffffffffff169060200190929190803573ffffffffffffffffffffffffffffffffffffffff169060200190929190505050610c9b565b005b3480156102e457600080fd5b50610311600480360360208110156102fb57600080fd5b8101908080359060200190929190505050610d21565b6040518082815260200191505060405180910390f35b34801561033357600080fd5b506103606004803603602081101561034a57600080fd5b8101908080359060200190929190505050610e4c565b6040518082815260200191505060405180910390f35b34801561038257600080fd5b5061038b610eaa565b6040518082815260200191505060405180910390f35b3480156103ad57600080fd5b506103b6610eb0565b6040518082815260200191505060405180910390f35b3480156103d857600080fd5b50610405600480360360208110156103ef57600080fd5b8101908080359060200190929190505050610edc565b6040518082815260200191505060405180910390f35b34801561042757600080fd5b50610430610f21565b6040518082815260200191505060405180910390f35b34801561045257600080fd5b5061045b610f3f565b604051808273ffffffffffffffffffffffffffffffffffffffff1673ffffffffffffffffffffffffffffffffffffffff16815260200191505060405180910390f35b3480156104a957600080fd5b506104d6600480360360208110156104c057600080fd5b8101908080359060200190929190505050610f65565b604051808381526020018281526020019250505060405180910390f35b3480156104ff57600080fd5b5061052c6004803603602081101561051657600080fd5b8101908080359060200190929190505050610f99565b6040518082815260200191505060405180910390f35b34801561054e57600080fd5b5061057b6004803603602081101561056557600080fd5b8101908080359060200190929190505050610fb1565b6040518082815260200191505060405180910390f35b34801561059d57600080fd5b506105ca600480360360208110156105b457600080fd5b8101908080359060200190929190505050610fe9565b6040518082815260200191505060405180910390f35b3480156105ec57600080fd5b506106196004803603602081101561060357600080fd5b8101908080359060200190929190505050611001565b60405180848152602001838152602001828152602001935050505060405180910390f35b34801561064957600080fd5b5061068a6004803603606081101561066057600080fd5b8101908080359060200190929190803590602001909291908035906020019092919050505061106f565b6040518082815260200191505060405180910390f35b3480156106ac57600080fd5b506106e3600480360360408110156106c357600080fd5b810190808035906020019092919080359060200190929190505050611187565b6040518082815260200191505060405180910390f35b34801561070557600080fd5b506107326004803603602081101561071c57600080fd5b810190808035906020019092919050505061120d565b6040518082815260200191505060405180910390f35b34801561075457600080fd5b506107816004803603602081101561076b57600080fd5b8101908080359060200190929190505050611225565b6040518082815260200191505060405180910390f35b3480156107a357600080fd5b506107ac61123d565b604051808273ffffffffffffffffffffffffffffffffffffffff1673ffffffffffffffffffffffffffffffffffffffff16815260200191505060405180910390f35b3480156107fa57600080fd5b506108276004803603602081101561081157600080fd5b8101908080359060200190929190505050611263565b604051808381526020018281526020019250505060405180910390f35b6000808290505b60008060008381526020019081526020016000205414156108745780806001900391505061084b565b80915050919050565b6000600560009054906101000a900473ffffffffffffffffffffffffffffffffffffffff1690506000600460009054906101000a900473ffffffffffffffffffffffffffffffffffffffff1690508173ffffffffffffffffffffffffffffffffffffffff1663bbdaebe273a4767b3a3a8d23912045e551c41c4c559572fb8533866040518463ffffffff167c0100000000000000000000000000000000000000000000000000000000028152600401808473ffffffffffffffffffffffffffffffffffffffff1673ffffffffffffffffffffffffffffffffffffffff1681526020018373ffffffffffffffffffffffffffffffffffffffff1673ffffffffffffffffffffffffffffffffffffffff1681526020018281526020019350505050600060405180830381600087803b1580156109b657600080fd5b505af11580156109ca573d6000803e3d6000fd5b5050505060006467267940d690506000600190506000600190505b600a8111610c425760008573ffffffffffffffffffffffffffffffffffffffff1663c033423688846040518363ffffffff167c0100000000000000000000000000000000000000000000000000000000028152600401808381526020018281526020019250505060206040518083038186803b158015610a6457600080fd5b505afa158015610a78573d6000803e3d6000fd5b505050506040513d6020811015610a8e57600080fd5b810190808051906020019092919050505090506000606060008060008973ffffffffffffffffffffffffffffffffffffffff16639f989ce8876040518263ffffffff167c01000000000000000000000000000000000000000000000000000000000281526004018082815260200191505060006040518083038186803b158015610b1757600080fd5b505afa158015610b2b573d6000803e3d6000fd5b505050506040513d6000823e3d601f19601f8201168201806040525060a0811015610b5557600080fd5b81019080805190602001909291908051640100000000811115610b7757600080fd5b82810190506020810184811115610b8d57600080fd5b8151856001820283011164010000000082111715610baa57600080fd5b50509291906020018051906020019092919080519060200190929190805190602001909291905050509450945094509450945060008314610c2f576000610bf18a85611187565b905080600860008a81526020019081526020016000208190555060968112610c2d576064600960008a8152602001908152602001600020819055505b505b50505050505080806001019150506109e5565b505050505050565b60075481565b6000806000612710620f42408581610c6457fe5b0681610c6c57fe5b0460646127108681610c7a57fe5b0681610c8257fe5b0460648681610c8d57fe5b069250925092509193909250565b81600460006101000a81548173ffffffffffffffffffffffffffffffffffffffff021916908373ffffffffffffffffffffffffffffffffffffffff16021790555080600560006101000a81548173ffffffffffffffffffffffffffffffffffffffff021916908373ffffffffffffffffffffffffffffffffffffffff1602179055505050565b6000808290506000600190506000604390506000600190505b8015610e395760018201831415610dc0576000866001600086815260200190815260200160002054039050600087600160008681526020019081526020016000205403905080821015610da25760016000868152602001908152602001600020549550610db9565b600160008581526020019081526020016000205495505b6000925050505b6000600283850181610dce57fe5b0490508660016000838152602001908152602001600020541415610e0b576001600082815260200190815260200160002054945060009150610e33565b8660016000838152602001908152602001600020541115610e2e57809250610e32565b8093505b5b50610d3a565b8360068190555083945050505050919050565b600080600080610e5b85610844565b9250610e6685610fb1565b91506000600284840181610e7657fe5b049050808610610e8857829150610e8c565b8391505b60008083815260200190815260200160002054945050505050919050565b60065481565b6000806419debeb3ce9050620f424064e8d4a510008281610ecd57fe5b0681610ed557fe5b0491505090565b60008060026001840181610eec57fe5b0590508291505b81811215610f1b57809150600281828581610f0a57fe5b050181610f1357fe5b059050610ef3565b50919050565b6000806419debeb3ce9050620f42408181610f3857fe5b0691505090565b600460009054906101000a900473ffffffffffffffffffffffffffffffffffffffff1681565b600080620f424064e8d4a510008481610f7a57fe5b0681610f8257fe5b04620f42408481610f8f57fe5b0691509150915091565b60016020528060005260406000206000915090505481565b6000808290505b6000806000838152602001908152602001600020541415610fe0578080600101915050610fb8565b80915050919050565b60006020528060005260406000206000915090505481565b6000806000806140009050600081860290506000610168828161102057fe5b049050600081905060008090506000819050600060649050600081830290506000617fff828161104c57fe5b0490508086868161ffff1691509b509b509b505050505050505050509193909250565b600080849050600183018414156110f15760008560016000878152602001908152602001600020540390506000866001600087815260200190815260200160002054039050808210156110d757600160008781526020019081526020016000205492506110ee565b600160008681526020019081526020016000205492505b50505b60006002848601816110ff57fe5b04905085600160008381526020019081526020016000205414156111385760016000828152602001908152602001600020549150611174565b85600160008381526020019081526020016000205411156111655761115e86868361106f565b9150611173565b61117086828661106f565b91505b5b8160068190555081925050509392505050565b600080600061119585611263565b915091506000806111a586611263565b915091506000838203905060006002868501816111be57fe5b0490506111ca81610e4c565b905080820291506000868503905060008182028485020190506111ec81610edc565b9050806118e302905080600781905550809850505050505050505092915050565b60086020528060005260406000206000915090505481565b60096020528060005260406000206000915090505481565b600560009054906101000a900473ffffffffffffffffffffffffffffffffffffffff1681565b60008060006467267940d69050600064676e6a7ba1905060008061128687610f65565b91509150600080600061129885610c50565b92509250925060008060006112ac87610c50565b925092509250610e10620f42408502816112c257fe5b04603c620f42408702816112d257fe5b04620f4240880201019550610e10620f42408202816112ed57fe5b04603c620f42408402816112fd57fe5b04620f4240850201019250630112a880617ab887028161131957fe5b049550630112a880617ab884028161132d57fe5b04925085839b509b505050505050505050505091509156fea165627a7a7230582065c7115056f1cb6b2f159b2f9fc7b770df5daa179f4eb2ce62097862cf07becd0029",
  "source": "pragma solidity ^0.5.6;\n\n\nimport \"./nf-token-metadata.sol\";\nimport \"./ownable.sol\";\nimport \"./RequestToOrder.sol\";\nimport \"./Farm.sol\";\n\n\ncontract ClientSide { \n    \n\n    mapping (uint => uint) public cos;\n    mapping (uint => uint) public angle;\n\n    uint256 lowerBound = 59341;\n    uint256 upperBound = 82379;\n    address public rtoAddress;\naddress public farmAddress;\n\nfunction setAddress(address _contractRTO, address _contractFarm) public {\n    rtoAddress = _contractRTO;\n    farmAddress = _contractFarm;\n\n}\n\nconstructor() public {\n    \n    \ncos[    59341   ]    =  82903   ;\ncos[\t59690\t]\t = \t82708\t;\ncos[\t60039\t]\t = \t82511\t;\ncos[\t60388\t]\t = \t82313\t;\ncos[\t60737\t]\t = \t82114\t;\ncos[\t61086\t]\t = \t81915\t;\ncos[\t61435\t]\t = \t81714\t;\ncos[\t61784\t]\t = \t81512\t;\ncos[\t62133\t]\t = \t81310\t;\ncos[\t62482\t]\t = \t81106\t;\ncos[\t62831\t]\t = \t80901\t;\ncos[\t63180\t]\t = \t80696\t;\ncos[\t63529\t]\t = \t80489\t;\ncos[\t63879\t]\t = \t80281\t;\ncos[\t64228\t]\t = \t80073\t;\ncos[\t64577\t]\t = \t79863\t;\ncos[\t64926\t]\t = \t79652\t;\ncos[\t65275\t]\t = \t79441\t;\ncos[\t65624\t]\t = \t79228\t;\ncos[\t65973\t]\t = \t79015\t;\ncos[\t66322\t]\t = \t78801\t;\ncos[\t66671\t]\t = \t78585\t;\ncos[\t67020\t]\t = \t78369\t;\ncos[\t67369\t]\t = \t78152\t;\ncos[\t67718\t]\t = \t77933\t;\ncos[\t68067\t]\t = \t77714\t;\ncos[\t68416\t]\t = \t77494\t;\ncos[\t68765\t]\t = \t77273\t;\ncos[\t69115\t]\t = \t77051\t;\ncos[\t69464\t]\t = \t76828\t;\ncos[\t69813\t]\t = \t76604\t;\ncos[\t70162\t]\t = \t76379\t;\ncos[\t70511\t]\t = \t76153\t;\ncos[\t70860\t]\t = \t75927\t;\ncos[\t71209\t]\t = \t75699\t;\ncos[\t71558\t]\t = \t75470\t;\ncos[\t71907\t]\t = \t75241\t;\ncos[\t72256\t]\t = \t75011\t;\ncos[\t72605\t]\t = \t74779\t;\ncos[\t72954\t]\t = \t74547\t;\ncos[\t73303\t]\t = \t74314\t;\ncos[\t73652\t]\t = \t74080\t;\ncos[\t74001\t]\t = \t73845\t;\ncos[\t74351\t]\t = \t73609\t;\ncos[\t74700\t]\t = \t73372\t;\ncos[\t75049\t]\t = \t73135\t;\ncos[\t75398\t]\t = \t72896\t;\ncos[\t75747\t]\t = \t72657\t;\ncos[\t76096\t]\t = \t72417\t;\ncos[\t76445\t]\t = \t72176\t;\ncos[\t76794\t]\t = \t71933\t;\ncos[\t77143\t]\t = \t71691\t;\ncos[\t77492\t]\t = \t71447\t;\ncos[\t77841\t]\t = \t71202\t;\ncos[\t78190\t]\t = \t70957\t;\ncos[\t78539\t]\t = \t70710\t;\ncos[\t78888\t]\t = \t70463\t;\ncos[\t79237\t]\t = \t70215\t;\ncos[\t79587\t]\t = \t69966\t;\ncos[\t79936\t]\t = \t69716\t;\ncos[\t80285\t]\t = \t69465\t;\ncos[\t80634\t]\t = \t69214\t;\ncos[\t80983\t]\t = \t68961\t;\ncos[\t81332\t]\t = \t68708\t;\ncos[\t81681\t]\t = \t68454\t;\ncos[\t82030\t]\t = \t68199\t;\ncos[\t82379\t]\t = \t67944\t;\n\n\n\nangle[\t1\t] =\t59341\t;\nangle[\t2\t] =\t59690\t;\nangle[\t3\t] =\t60039\t;\nangle[\t4\t] =\t60388\t;\nangle[\t5\t] =\t60737\t;\nangle[\t6\t] =\t61086\t;\nangle[\t7\t] =\t61435\t;\nangle[\t8\t] =\t61784\t;\nangle[\t9\t] =\t62133\t;\nangle[\t10\t] =\t62482\t;\nangle[\t11\t] =\t62831\t;\nangle[\t12\t] =\t63180\t;\nangle[\t13\t] =\t63529\t;\nangle[\t14\t] =\t63879\t;\nangle[\t15\t] =\t64228\t;\nangle[\t16\t] =\t64577\t;\nangle[\t17\t] =\t64926\t;\nangle[\t18\t] =\t65275\t;\nangle[\t19\t] =\t65624\t;\nangle[\t20\t] =\t65973\t;\nangle[\t21\t] =\t66322\t;\nangle[\t22\t] =\t66671\t;\nangle[\t23\t] =\t67020\t;\nangle[\t24\t] =\t67369\t;\nangle[\t25\t] =\t67718\t;\nangle[\t26\t] =\t68067\t;\nangle[\t27\t] =\t68416\t;\nangle[\t28\t] =\t68765\t;\nangle[\t29\t] =\t69115\t;\nangle[\t30\t] =\t69464\t;\nangle[\t31\t] =\t69813\t;\nangle[\t32\t] =\t70162\t;\nangle[\t33\t] =\t70511\t;\nangle[\t34\t] =\t70860\t;\nangle[\t35\t] =\t71209\t;\nangle[\t36\t] =\t71558\t;\nangle[\t37\t] =\t71907\t;\nangle[\t38\t] =\t72256\t;\nangle[\t39\t] =\t72605\t;\nangle[\t40\t] =\t72954\t;\nangle[\t41\t] =\t73303\t;\nangle[\t42\t] =\t73652\t;\nangle[\t43\t] =\t74001\t;\nangle[\t44\t] =\t74351\t;\nangle[\t45\t] =\t74700\t;\nangle[\t46\t] =\t75049\t;\nangle[\t47\t] =\t75398\t;\nangle[\t48\t] =\t75747\t;\nangle[\t49\t] =\t76096\t;\nangle[\t50\t] =\t76445\t;\nangle[\t51\t] =\t76794\t;\nangle[\t52\t] =\t77143\t;\nangle[\t53\t] =\t77492\t;\nangle[\t54\t] =\t77841\t;\nangle[\t55\t] =\t78190\t;\nangle[\t56\t] =\t78539\t;\nangle[\t57\t] =\t78888\t;\nangle[\t58\t] =\t79237\t;\nangle[\t59\t] =\t79587\t;\nangle[\t60\t] =\t79936\t;\nangle[\t61\t] =\t80285\t;\nangle[\t62\t] =\t80634\t;\nangle[\t63\t] =\t80983\t;\nangle[\t64\t] =\t81332\t;\nangle[\t65\t] =\t81681\t;\nangle[\t66\t] =\t82030\t;\nangle[\t67\t] =\t82379\t;\n\n}\n\n\n\nuint256 public resul;\nint public resul2;\n\n\n//up e low funzioni di ricerca indici tabella coseno\nfunction up(uint256 _input) public returns(uint256) {\n    uint256 res = _input;\n    while(cos[res] == 0){\n        res++;\n    }\n    return res;\n}\n\nfunction low(uint256 _input) public returns(uint256) {\n    uint256 res = _input;\n    while(cos[res] ==0){\n        res--;\n    }\n    \n    return res;\n}\n\n\n//funzione sorting array\nfunction sort(uint256 _input, uint256 _low, uint256 _high) public returns(uint256) {\n    uint256 res = _input;\n    if (_low == _high+1){\n        uint256 z = angle[_low] - _input;\n        uint256 h = angle[_high] - _input;\n        if(z < h){\n                res = angle[_low];\n        }\n        else{\n            res = angle[_high];\n        }\n    }\n    \n    uint256 mid = (_low + _high)/2;\n    if (angle[mid] == _input){\n        res = angle[mid];\n    }\n    else{\n        if (angle[mid] > _input){\n            res = sort(_input, _low, mid);\n        }\n        else {\n            res = sort(_input, mid, _high);\n        }\n    }\n    resul = res;\n    return res;\n}\n\n\nfunction sort2(uint256 _input) public returns(uint256) {\n    uint256 res = _input;\n    uint256 low = 1;\n    uint256 high = 67;\n    bool check = true;\n    while (check){\n    \n        if (low == high+1){\n            uint256 z = angle[low] - _input;\n            uint256 h = angle[high] - _input;\n            if(z < h){\n                    res = angle[low];\n            }\n            else{\n                res = angle[high];\n            }\n            check = false;\n        }\n        \n        uint256 mid = (low + high)/2;\n        if (angle[mid] == _input){\n            res = angle[mid];\n            check = false;\n        }\n        else{\n            if (angle[mid] > _input){\n                high =  mid;\n            }\n            else {\n                low =  mid;\n            }\n        }\n    }\n    resul = res;\n    return res;\n}\n\n\n    \n    \n\n\nfunction findCos(uint256 _input) public returns(uint256) {\n    uint256 lower;\n    uint256 upper;\n    uint res;\n    \n    lower=low(_input);\n    upper=up(_input);\n    \n    uint256 temp = (upper + lower)/2;\n    if( _input >= temp ){\n        res = upper;\n    }\n    else{\n        res = lower;\n    }\n   // resul = cos[res];\n    return cos[res];\n}\n\n\n    \n    function test(uint256 _initial) public pure returns (uint256, uint256, uint256) {\n        // as we are returning integers without decimal places it's always rounded down automatically\n        return (_initial % 1000000 / 10000, _initial % 10000 / 100, _initial % 100);\n    }\n    \n\n    \n    function splitCoordinates(uint256 _cordinates) public pure returns (uint256, uint256) {\n        // as we are returning integers without decimal places it's always rounded down automatically\n        return (_cordinates % 1000000000000/1000000, _cordinates % 1000000);\n    }\n    \n\n    function exstactionLat() public pure returns (uint256) {\n        uint256 initial = 111111222222;\n        // as we are returning integers without decimal places it's always rounded down automatically\n        return (initial % 1000000000000/1000000);\n    }\n    \n    function exstactionLon() public pure returns (uint256) {\n        uint256 initial = 111111222222;\n        // as we are returning integers without decimal places it's always rounded down automatically\n        return (initial % 1000000);\n    }\n    \n\n\n     function toRadians(uint256 _cordinates) public pure returns (uint256, uint256) {\n        uint256 initial = 443027112150;\n        uint256 initial2 = 444234103713;\n\n        // as we are returning integers without decimal places it's always rounded down automatically\n        (uint256 lat, uint256 lon) = splitCoordinates(_cordinates);\n        (uint256 latDeg, uint256 latFist, uint256 latSecond) = test(lat);\n        (uint256 lonDeg, uint256 lonFist, uint256 lonSecond) = test(lon);\n        latDeg = (latDeg*1000000) + (latFist*1000000)/60+ (latSecond*1000000)/3600;\n        lonDeg = (lonDeg*1000000) + (lonFist*1000000)/60+ (lonSecond*1000000)/3600;\n        \n        latDeg = (latDeg * 31416)/18000000;\n        lonDeg = (lonDeg * 31416)/18000000;\n\n        \n        //uint256 RadLat = (a * 3.14);\n        \n        \n        \n        return (latDeg, lonDeg);\n    }\n    \n   \n    \n    \n    function test2 (uint256 a) public pure returns(uint256, uint256, int){\n        uint256 const = 16384;\n        uint256 b = a * const;\n        int d = int(b/360);\n        uint16 par = uint16(d);\n        int c =0;\n        uint256 conver = uint256(c);\n        uint256 uno =100;\n        uint256 out = conver * uno;\n        uint256 out2 = out/32767;\n        return(out2, par, c);\n    }\n    \n    \n     function distance(uint256 _cordinates1, uint256 _cordinates2) public returns (int) {\n        (uint256 lat1, uint256 lon1) = toRadians(_cordinates1);\n        (uint256 lat2, uint256 lon2) = toRadians(_cordinates2);\n        int x = int(lon2) - int(lon1);\n        uint256 arg = (lat2 +lat1)/2;\n        arg = findCos(arg);\n        x = x * int(arg); \n        int y = int(lat2) - int(lat1);\n        int dis = (x*x)+(y*y);\n        dis = sqrt(dis);\n        dis = 6371 * dis;\n        \n       //dis = dis % 1000000000000/10000000000;\n\n        resul2 = dis;\n        \n        return(dis);\n    }\n    \n    \n        function sqrt(int x) public pure returns (int y) {\n    int z = (x + 1) / 2;\n    y = x;\n    while (z < y) {\n        y = z;\n        z = (x / z + z) / 2;\n    }\n        }\n        \n        \n        mapping (uint => int) public controll;\n            mapping (uint => int) public controll2;\n\n      function Delivery1(uint _tokenId) public  payable{\n          \n    Farm farm = Farm(farmAddress);\n    RequestToOrder monte = RequestToOrder(rtoAddress);\n    farm.transferFromInternal(0xA4767B3a3a8D23912045E551c41c4C559572Fb85, msg.sender, _tokenId);\n            uint256 initial = 443027112150;\n\n    bool km0 = true;\n    for(uint i = 1; i <= 10; i++){\n      uint alfa = farm.readIngrediente(_tokenId, i);\n      (uint256 a, string memory b, uint256 c, address d, uint256 e) = monte.listOfIngredients(alfa);\n      if (c != 0){\n          int dist = distance(initial,c);\n          controll[i] = dist;\n          if (dist >= 150){\n            ///do notthing..\ncontroll2[i] = 100;    \n          }\n\n        }\n    }\n}\n    \n    \n}",
  "sourcePath": "/Users/simone/Desktop/fusion/contracts/ClientSide.sol",
  "compiler": {
    "name": "solc",
    "version": "0.5.6+commit.b259423e.Emscripten.clang"
  },
  "schemaVersion": "3.0.0-beta.2",
  "updatedAt": "2019-05-06T18:00:34.931Z",
  "devdoc": {
    "methods": {}
  },
  "userdoc": {
    "methods": {}
  }
}