{
  "contractName": "MyArtSale",
  "abi": [
    {
      "constant": true,
      "inputs": [
        {
          "name": "_interfaceID",
          "type": "bytes4"
        }
      ],
      "name": "supportsInterface",
      "outputs": [
        {
          "name": "",
          "type": "bool"
        }
      ],
      "payable": false,
      "stateMutability": "view",
      "type": "function",
      "signature": "0x01ffc9a7"
    },
    {
      "constant": true,
      "inputs": [],
      "name": "count",
      "outputs": [
        {
          "name": "",
          "type": "uint256"
        }
      ],
      "payable": false,
      "stateMutability": "view",
      "type": "function",
      "signature": "0x06661abd"
    },
    {
      "constant": true,
      "inputs": [],
      "name": "name",
      "outputs": [
        {
          "name": "_name",
          "type": "string"
        }
      ],
      "payable": false,
      "stateMutability": "view",
      "type": "function",
      "signature": "0x06fdde03"
    },
    {
      "constant": true,
      "inputs": [
        {
          "name": "_tokenId",
          "type": "uint256"
        }
      ],
      "name": "getApproved",
      "outputs": [
        {
          "name": "",
          "type": "address"
        }
      ],
      "payable": false,
      "stateMutability": "view",
      "type": "function",
      "signature": "0x081812fc"
    },
    {
      "constant": false,
      "inputs": [
        {
          "name": "_approved",
          "type": "address"
        },
        {
          "name": "_tokenId",
          "type": "uint256"
        }
      ],
      "name": "approve",
      "outputs": [],
      "payable": false,
      "stateMutability": "nonpayable",
      "type": "function",
      "signature": "0x095ea7b3"
    },
    {
      "constant": false,
      "inputs": [
        {
          "name": "_from",
          "type": "address"
        },
        {
          "name": "_to",
          "type": "address"
        },
        {
          "name": "_tokenId",
          "type": "uint256"
        }
      ],
      "name": "transferFrom",
      "outputs": [],
      "payable": false,
      "stateMutability": "nonpayable",
      "type": "function",
      "signature": "0x23b872dd"
    },
    {
      "constant": true,
      "inputs": [
        {
          "name": "_tokenId",
          "type": "uint256"
        },
        {
          "name": "_number",
          "type": "uint256"
        }
      ],
      "name": "tokenIngrediente0",
      "outputs": [
        {
          "name": "",
          "type": "uint256"
        }
      ],
      "payable": false,
      "stateMutability": "view",
      "type": "function",
      "signature": "0x298a94dd"
    },
    {
      "constant": true,
      "inputs": [
        {
          "name": "_tokenId",
          "type": "uint256"
        }
      ],
      "name": "quantity",
      "outputs": [
        {
          "name": "",
          "type": "uint256"
        }
      ],
      "payable": false,
      "stateMutability": "view",
      "type": "function",
      "signature": "0x3ddab6a9"
    },
    {
      "constant": false,
      "inputs": [
        {
          "name": "_from",
          "type": "address"
        },
        {
          "name": "_to",
          "type": "address"
        },
        {
          "name": "_tokenId",
          "type": "uint256"
        }
      ],
      "name": "safeTransferFrom",
      "outputs": [],
      "payable": false,
      "stateMutability": "nonpayable",
      "type": "function",
      "signature": "0x42842e0e"
    },
    {
      "constant": true,
      "inputs": [],
      "name": "ZERO_ADDRESS",
      "outputs": [
        {
          "name": "",
          "type": "string"
        }
      ],
      "payable": false,
      "stateMutability": "view",
      "type": "function",
      "signature": "0x538ba4f9"
    },
    {
      "constant": true,
      "inputs": [
        {
          "name": "_tokenId",
          "type": "uint256"
        }
      ],
      "name": "ownerOf",
      "outputs": [
        {
          "name": "_owner",
          "type": "address"
        }
      ],
      "payable": false,
      "stateMutability": "view",
      "type": "function",
      "signature": "0x6352211e"
    },
    {
      "constant": false,
      "inputs": [
        {
          "name": "_from",
          "type": "address"
        },
        {
          "name": "_to",
          "type": "address"
        },
        {
          "name": "_tokenId",
          "type": "uint256"
        }
      ],
      "name": "transferFrom2",
      "outputs": [],
      "payable": false,
      "stateMutability": "nonpayable",
      "type": "function",
      "signature": "0x6c12ed28"
    },
    {
      "constant": true,
      "inputs": [
        {
          "name": "_owner",
          "type": "address"
        }
      ],
      "name": "balanceOf",
      "outputs": [
        {
          "name": "",
          "type": "uint256"
        }
      ],
      "payable": false,
      "stateMutability": "view",
      "type": "function",
      "signature": "0x70a08231"
    },
    {
      "constant": true,
      "inputs": [],
      "name": "NOT_OWNER",
      "outputs": [
        {
          "name": "",
          "type": "string"
        }
      ],
      "payable": false,
      "stateMutability": "view",
      "type": "function",
      "signature": "0x71d78b12"
    },
    {
      "constant": true,
      "inputs": [],
      "name": "owner",
      "outputs": [
        {
          "name": "",
          "type": "address"
        }
      ],
      "payable": false,
      "stateMutability": "view",
      "type": "function",
      "signature": "0x8da5cb5b"
    },
    {
      "constant": true,
      "inputs": [],
      "name": "symbol",
      "outputs": [
        {
          "name": "_symbol",
          "type": "string"
        }
      ],
      "payable": false,
      "stateMutability": "view",
      "type": "function",
      "signature": "0x95d89b41"
    },
    {
      "constant": false,
      "inputs": [
        {
          "name": "_operator",
          "type": "address"
        },
        {
          "name": "_approved",
          "type": "bool"
        }
      ],
      "name": "setApprovalForAll",
      "outputs": [],
      "payable": false,
      "stateMutability": "nonpayable",
      "type": "function",
      "signature": "0xa22cb465"
    },
    {
      "constant": false,
      "inputs": [
        {
          "name": "_from",
          "type": "address"
        },
        {
          "name": "_to",
          "type": "address"
        },
        {
          "name": "_tokenId",
          "type": "uint256"
        },
        {
          "name": "_data",
          "type": "bytes"
        }
      ],
      "name": "safeTransferFrom",
      "outputs": [],
      "payable": false,
      "stateMutability": "nonpayable",
      "type": "function",
      "signature": "0xb88d4fde"
    },
    {
      "constant": true,
      "inputs": [
        {
          "name": "_tokenId",
          "type": "uint256"
        }
      ],
      "name": "tokenURI",
      "outputs": [
        {
          "name": "",
          "type": "string"
        }
      ],
      "payable": false,
      "stateMutability": "view",
      "type": "function",
      "signature": "0xc87b56dd"
    },
    {
      "constant": true,
      "inputs": [
        {
          "name": "_tokenId",
          "type": "uint256"
        }
      ],
      "name": "tokenProva",
      "outputs": [
        {
          "name": "",
          "type": "string"
        }
      ],
      "payable": false,
      "stateMutability": "view",
      "type": "function",
      "signature": "0xe9527396"
    },
    {
      "constant": true,
      "inputs": [
        {
          "name": "_owner",
          "type": "address"
        },
        {
          "name": "_operator",
          "type": "address"
        }
      ],
      "name": "isApprovedForAll",
      "outputs": [
        {
          "name": "",
          "type": "bool"
        }
      ],
      "payable": false,
      "stateMutability": "view",
      "type": "function",
      "signature": "0xe985e9c5"
    },
    {
      "constant": false,
      "inputs": [
        {
          "name": "_newOwner",
          "type": "address"
        }
      ],
      "name": "transferOwnership",
      "outputs": [],
      "payable": false,
      "stateMutability": "nonpayable",
      "type": "function",
      "signature": "0xf2fde38b"
    },
    {
      "inputs": [],
      "payable": false,
      "stateMutability": "nonpayable",
      "type": "constructor",
      "signature": "constructor"
    },
    {
      "anonymous": false,
      "inputs": [
        {
          "indexed": true,
          "name": "previousOwner",
          "type": "address"
        },
        {
          "indexed": true,
          "name": "newOwner",
          "type": "address"
        }
      ],
      "name": "OwnershipTransferred",
      "type": "event",
      "signature": "0x8be0079c531659141344cd1fd0a4f28419497f9722a3daafe3b4186f6b6457e0"
    },
    {
      "anonymous": false,
      "inputs": [
        {
          "indexed": true,
          "name": "_from",
          "type": "address"
        },
        {
          "indexed": true,
          "name": "_to",
          "type": "address"
        },
        {
          "indexed": true,
          "name": "_tokenId",
          "type": "uint256"
        }
      ],
      "name": "Transfer",
      "type": "event",
      "signature": "0xddf252ad1be2c89b69c2b068fc378daa952ba7f163c4a11628f55a4df523b3ef"
    },
    {
      "anonymous": false,
      "inputs": [
        {
          "indexed": true,
          "name": "_owner",
          "type": "address"
        },
        {
          "indexed": true,
          "name": "_approved",
          "type": "address"
        },
        {
          "indexed": true,
          "name": "_tokenId",
          "type": "uint256"
        }
      ],
      "name": "Approval",
      "type": "event",
      "signature": "0x8c5be1e5ebec7d5bd14f71427d1e84f3dd0314c0f7b2291e5b200ac8c7c3b925"
    },
    {
      "anonymous": false,
      "inputs": [
        {
          "indexed": true,
          "name": "_owner",
          "type": "address"
        },
        {
          "indexed": true,
          "name": "_operator",
          "type": "address"
        },
        {
          "indexed": false,
          "name": "_approved",
          "type": "bool"
        }
      ],
      "name": "ApprovalForAll",
      "type": "event",
      "signature": "0x17307eab39ab6107e8899845ad3d59bd9653f200f220920489ca2b5937696c31"
    },
    {
      "constant": false,
      "inputs": [
        {
          "name": "_nome",
          "type": "string"
        },
        {
          "name": "_symbol",
          "type": "string"
        }
      ],
      "name": "prova",
      "outputs": [],
      "payable": false,
      "stateMutability": "nonpayable",
      "type": "function",
      "signature": "0x857263f7"
    },
    {
      "constant": false,
      "inputs": [
        {
          "name": "_to",
          "type": "address"
        },
        {
          "name": "_tokenId",
          "type": "uint256"
        },
        {
          "name": "_uri",
          "type": "string"
        },
        {
          "name": "_prova",
          "type": "string"
        }
      ],
      "name": "mint",
      "outputs": [],
      "payable": false,
      "stateMutability": "nonpayable",
      "type": "function",
      "signature": "0x2fb102cf"
    },
    {
      "constant": false,
      "inputs": [
        {
          "name": "_tokenId",
          "type": "uint256"
        }
      ],
      "name": "mintAnother",
      "outputs": [],
      "payable": false,
      "stateMutability": "nonpayable",
      "type": "function",
      "signature": "0x9a017284"
    },
    {
      "constant": false,
      "inputs": [
        {
          "name": "_tokenId",
          "type": "uint256"
        },
        {
          "name": "_ingrediente",
          "type": "uint256"
        }
      ],
      "name": "set_ingrediente",
      "outputs": [],
      "payable": false,
      "stateMutability": "nonpayable",
      "type": "function",
      "signature": "0x14870915"
    },
    {
      "constant": false,
      "inputs": [
        {
          "name": "_ingrediente",
          "type": "uint256"
        },
        {
          "name": "_contractAddress",
          "type": "address"
        }
      ],
      "name": "altro",
      "outputs": [],
      "payable": false,
      "stateMutability": "nonpayable",
      "type": "function",
      "signature": "0xa41e9227"
    }
  ],
  "bytecode": "0x60806040523480156200001157600080fd5b5060016000806301ffc9a77c0100000000000000000000000000000000000000000000000000000000027bffffffffffffffffffffffffffffffffffffffffffffffffffffffff1916815260200190815260200160002060006101000a81548160ff02191690831515021790555060016000806380ac58cd7c0100000000000000000000000000000000000000000000000000000000027bffffffffffffffffffffffffffffffffffffffffffffffffffffffff1916815260200190815260200160002060006101000a81548160ff0219169083151502179055506001600080635b5e139f7c0100000000000000000000000000000000000000000000000000000000027bffffffffffffffffffffffffffffffffffffffffffffffffffffffff1916815260200190815260200160002060006101000a81548160ff02191690831515021790555033600c60006101000a81548173ffffffffffffffffffffffffffffffffffffffff021916908373ffffffffffffffffffffffffffffffffffffffff1602179055506040518060400160405280600d81526020017f4c6f74206f66204469736865730000000000000000000000000000000000000081525060069080519060200190620001e79291906200023c565b506040518060400160405280600381526020017f445348000000000000000000000000000000000000000000000000000000000081525060079080519060200190620002359291906200023c565b50620002eb565b828054600181600116156101000203166002900490600052602060002090601f016020900481019282601f106200027f57805160ff1916838001178555620002b0565b82800160010185558215620002b0579182015b82811115620002af57825182559160200191906001019062000292565b5b509050620002bf9190620002c3565b5090565b620002e891905b80821115620002e4576000816000905550600101620002ca565b5090565b90565b6135f780620002fb6000396000f3fe608060405234801561001057600080fd5b50600436106101c6576000357c0100000000000000000000000000000000000000000000000000000000900480636c12ed2811610116578063a22cb465116100b4578063c87b56dd1161008e578063c87b56dd14610c0f578063e952739614610cb6578063e985e9c514610d5d578063f2fde38b14610dd9576101c6565b8063a22cb46514610aae578063a41e922714610afe578063b88d4fde14610b4c576101c6565b8063857263f7116100f0578063857263f7146108615780638da5cb5b146109b357806395d89b41146109fd5780639a01728414610a80576101c6565b80636c12ed281461071857806370a082311461078657806371d78b12146107de576101c6565b806323b872dd116101835780633ddab6a91161015d5780633ddab6a91461057757806342842e0e146105b9578063538ba4f9146106275780636352211e146106aa576101c6565b806323b872dd146103c5578063298a94dd146104335780632fb102cf1461047f576101c6565b806301ffc9a7146101cb57806306661abd1461023057806306fdde031461024e578063081812fc146102d1578063095ea7b31461033f578063148709151461038d575b600080fd5b610216600480360360208110156101e157600080fd5b8101908080357bffffffffffffffffffffffffffffffffffffffffffffffffffffffff19169060200190929190505050610e1d565b604051808215151515815260200191505060405180910390f35b610238610e84565b6040518082815260200191505060405180910390f35b610256610e8a565b6040518080602001828103825283818151815260200191508051906020019080838360005b8381101561029657808201518184015260208101905061027b565b50505050905090810190601f1680156102c35780820380516001836020036101000a031916815260200191505b509250505060405180910390f35b6102fd600480360360208110156102e757600080fd5b8101908080359060200190929190505050610f2c565b604051808273ffffffffffffffffffffffffffffffffffffffff1673ffffffffffffffffffffffffffffffffffffffff16815260200191505060405180910390f35b61038b6004803603604081101561035557600080fd5b81019080803573ffffffffffffffffffffffffffffffffffffffff16906020019092919080359060200190929190505050610fd8565b005b6103c3600480360360408110156103a357600080fd5b81019080803590602001909291908035906020019092919050505061126e565b005b610431600480360360608110156103db57600080fd5b81019080803573ffffffffffffffffffffffffffffffffffffffff169060200190929190803573ffffffffffffffffffffffffffffffffffffffff169060200190929190803590602001909291905050506113aa565b005b6104696004803603604081101561044957600080fd5b810190808035906020019092919080359060200190929190505050611640565b6040518082815260200191505060405180910390f35b6105756004803603608081101561049557600080fd5b81019080803573ffffffffffffffffffffffffffffffffffffffff16906020019092919080359060200190929190803590602001906401000000008111156104dc57600080fd5b8201836020820111156104ee57600080fd5b8035906020019184600183028401116401000000008311171561051057600080fd5b90919293919293908035906020019064010000000081111561053157600080fd5b82018360208201111561054357600080fd5b8035906020019184600183028401116401000000008311171561056557600080fd5b9091929391929390505050611786565b005b6105a36004803603602081101561058d57600080fd5b8101908080359060200190929190505050611985565b6040518082815260200191505060405180910390f35b610625600480360360608110156105cf57600080fd5b81019080803573ffffffffffffffffffffffffffffffffffffffff169060200190929190803573ffffffffffffffffffffffffffffffffffffffff16906020019092919080359060200190929190505050611a11565b005b61062f611a31565b6040518080602001828103825283818151815260200191508051906020019080838360005b8381101561066f578082015181840152602081019050610654565b50505050905090810190601f16801561069c5780820380516001836020036101000a031916815260200191505b509250505060405180910390f35b6106d6600480360360208110156106c057600080fd5b8101908080359060200190929190505050611a6a565b604051808273ffffffffffffffffffffffffffffffffffffffff1673ffffffffffffffffffffffffffffffffffffffff16815260200191505060405180910390f35b6107846004803603606081101561072e57600080fd5b81019080803573ffffffffffffffffffffffffffffffffffffffff169060200190929190803573ffffffffffffffffffffffffffffffffffffffff16906020019092919080359060200190929190505050611ae1565b005b6107c86004803603602081101561079c57600080fd5b81019080803573ffffffffffffffffffffffffffffffffffffffff169060200190929190505050611c0a565b6040518082815260200191505060405180910390f35b6107e6611c55565b6040518080602001828103825283818151815260200191508051906020019080838360005b8381101561082657808201518184015260208101905061080b565b50505050905090810190601f1680156108535780820380516001836020036101000a031916815260200191505b509250505060405180910390f35b6109b16004803603604081101561087757600080fd5b810190808035906020019064010000000081111561089457600080fd5b8201836020820111156108a657600080fd5b803590602001918460018302840111640100000000831117156108c857600080fd5b91908080601f016020809104026020016040519081016040528093929190818152602001838380828437600081840152601f19601f8201169050808301925050505050505091929192908035906020019064010000000081111561092b57600080fd5b82018360208201111561093d57600080fd5b8035906020019184600183028401116401000000008311171561095f57600080fd5b91908080601f016020809104026020016040519081016040528093929190818152602001838380828437600081840152601f19601f820116905080830192505050505050509192919290505050611c8e565b005b6109bb611cc0565b604051808273ffffffffffffffffffffffffffffffffffffffff1673ffffffffffffffffffffffffffffffffffffffff16815260200191505060405180910390f35b610a05611ce6565b6040518080602001828103825283818151815260200191508051906020019080838360005b83811015610a45578082015181840152602081019050610a2a565b50505050905090810190601f168015610a725780820380516001836020036101000a031916815260200191505b509250505060405180910390f35b610aac60048036036020811015610a9657600080fd5b8101908080359060200190929190505050611d88565b005b610afc60048036036040811015610ac457600080fd5b81019080803573ffffffffffffffffffffffffffffffffffffffff169060200190929190803515159060200190929190505050611ed4565b005b610b4a60048036036040811015610b1457600080fd5b8101908080359060200190929190803573ffffffffffffffffffffffffffffffffffffffff169060200190929190505050611fd5565b005b610c0d60048036036080811015610b6257600080fd5b81019080803573ffffffffffffffffffffffffffffffffffffffff169060200190929190803573ffffffffffffffffffffffffffffffffffffffff1690602001909291908035906020019092919080359060200190640100000000811115610bc957600080fd5b820183602082011115610bdb57600080fd5b80359060200191846001830284011164010000000083111715610bfd57600080fd5b909192939192939050505061224e565b005b610c3b60048036036020811015610c2557600080fd5b81019080803590602001909291905050506122a5565b6040518080602001828103825283818151815260200191508051906020019080838360005b83811015610c7b578082015181840152602081019050610c60565b50505050905090810190601f168015610ca85780820380516001836020036101000a031916815260200191505b509250505060405180910390f35b610ce260048036036020811015610ccc57600080fd5b81019080803590602001909291905050506123c9565b6040518080602001828103825283818151815260200191508051906020019080838360005b83811015610d22578082015181840152602081019050610d07565b50505050905090810190601f168015610d4f5780820380516001836020036101000a031916815260200191505b509250505060405180910390f35b610dbf60048036036040811015610d7357600080fd5b81019080803573ffffffffffffffffffffffffffffffffffffffff169060200190929190803573ffffffffffffffffffffffffffffffffffffffff1690602001909291905050506124ed565b604051808215151515815260200191505060405180910390f35b610e1b60048036036020811015610def57600080fd5b81019080803573ffffffffffffffffffffffffffffffffffffffff169060200190929190505050612581565b005b6000806000837bffffffffffffffffffffffffffffffffffffffffffffffffffffffff19167bffffffffffffffffffffffffffffffffffffffffffffffffffffffff1916815260200190815260200160002060009054906101000a900460ff169050919050565b600d5481565b606060068054600181600116156101000203166002900480601f016020809104026020016040519081016040528092919081815260200182805460018160011615610100020316600290048015610f225780601f10610ef757610100808354040283529160200191610f22565b820191906000526020600020905b815481529060010190602001808311610f0557829003601f168201915b5050505050905090565b600081600073ffffffffffffffffffffffffffffffffffffffff166001600083815260200190815260200160002060009054906101000a900473ffffffffffffffffffffffffffffffffffffffff1673ffffffffffffffffffffffffffffffffffffffff161415610f9c57600080fd5b6002600084815260200190815260200160002060009054906101000a900473ffffffffffffffffffffffffffffffffffffffff16915050919050565b8060006001600083815260200190815260200160002060009054906101000a900473ffffffffffffffffffffffffffffffffffffffff1690503373ffffffffffffffffffffffffffffffffffffffff168173ffffffffffffffffffffffffffffffffffffffff1614806110d15750600460008273ffffffffffffffffffffffffffffffffffffffff1673ffffffffffffffffffffffffffffffffffffffff16815260200190815260200160002060003373ffffffffffffffffffffffffffffffffffffffff1673ffffffffffffffffffffffffffffffffffffffff16815260200190815260200160002060009054906101000a900460ff165b6110da57600080fd5b82600073ffffffffffffffffffffffffffffffffffffffff166001600083815260200190815260200160002060009054906101000a900473ffffffffffffffffffffffffffffffffffffffff1673ffffffffffffffffffffffffffffffffffffffff16141561114857600080fd5b60006001600086815260200190815260200160002060009054906101000a900473ffffffffffffffffffffffffffffffffffffffff1690508073ffffffffffffffffffffffffffffffffffffffff168673ffffffffffffffffffffffffffffffffffffffff1614156111b957600080fd5b856002600087815260200190815260200160002060006101000a81548173ffffffffffffffffffffffffffffffffffffffff021916908373ffffffffffffffffffffffffffffffffffffffff160217905550848673ffffffffffffffffffffffffffffffffffffffff168273ffffffffffffffffffffffffffffffffffffffff167f8c5be1e5ebec7d5bd14f71427d1e84f3dd0314c0f7b2291e5b200ac8c7c3b92560405160405180910390a4505050505050565b600c60009054906101000a900473ffffffffffffffffffffffffffffffffffffffff1673ffffffffffffffffffffffffffffffffffffffff163373ffffffffffffffffffffffffffffffffffffffff16146040518060400160405280600681526020017f30313830303100000000000000000000000000000000000000000000000000008152509061139b576040517f08c379a00000000000000000000000000000000000000000000000000000000081526004018080602001828103825283818151815260200191508051906020019080838360005b83811015611360578082015181840152602081019050611345565b50505050905090810190601f16801561138d5780820380516001836020036101000a031916815260200191505b509250505060405180910390fd5b506113a6828261287d565b5050565b8060006001600083815260200190815260200160002060009054906101000a900473ffffffffffffffffffffffffffffffffffffffff1690503373ffffffffffffffffffffffffffffffffffffffff168173ffffffffffffffffffffffffffffffffffffffff16148061147b57503373ffffffffffffffffffffffffffffffffffffffff166002600084815260200190815260200160002060009054906101000a900473ffffffffffffffffffffffffffffffffffffffff1673ffffffffffffffffffffffffffffffffffffffff16145b8061150c5750600460008273ffffffffffffffffffffffffffffffffffffffff1673ffffffffffffffffffffffffffffffffffffffff16815260200190815260200160002060003373ffffffffffffffffffffffffffffffffffffffff1673ffffffffffffffffffffffffffffffffffffffff16815260200190815260200160002060009054906101000a900460ff165b61151557600080fd5b82600073ffffffffffffffffffffffffffffffffffffffff166001600083815260200190815260200160002060009054906101000a900473ffffffffffffffffffffffffffffffffffffffff1673ffffffffffffffffffffffffffffffffffffffff16141561158357600080fd5b60006001600086815260200190815260200160002060009054906101000a900473ffffffffffffffffffffffffffffffffffffffff1690508673ffffffffffffffffffffffffffffffffffffffff168173ffffffffffffffffffffffffffffffffffffffff16146115f357600080fd5b600073ffffffffffffffffffffffffffffffffffffffff168673ffffffffffffffffffffffffffffffffffffffff16141561162d57600080fd5b611637868661294f565b50505050505050565b600082600073ffffffffffffffffffffffffffffffffffffffff166001600083815260200190815260200160002060009054906101000a900473ffffffffffffffffffffffffffffffffffffffff1673ffffffffffffffffffffffffffffffffffffffff1614156116b057600080fd5b6000600a6000868152602001908152602001600020541180156116e65750600a8060008681526020019081526020016000205411155b611758576040517f08c379a00000000000000000000000000000000000000000000000000000000081526004018080602001828103825260138152602001807f6e6f742076616c696420617267756d656e74730000000000000000000000000081525060200191505060405180910390fd5b6009600085815260200190815260200160002060008481526020019081526020016000205491505092915050565b600c60009054906101000a900473ffffffffffffffffffffffffffffffffffffffff1673ffffffffffffffffffffffffffffffffffffffff163373ffffffffffffffffffffffffffffffffffffffff16146040518060400160405280600681526020017f3031383030310000000000000000000000000000000000000000000000000000815250906118b3576040517f08c379a00000000000000000000000000000000000000000000000000000000081526004018080602001828103825283818151815260200191508051906020019080838360005b8381101561187857808201518184015260208101905061185d565b50505050905090810190601f1680156118a55780820380516001836020036101000a031916815260200191505b509250505060405180910390fd5b50600d600081548092919060010191905055506118d286600d54612a04565b611922600d5485858080601f016020809104026020016040519081016040528093929190818152602001838380828437600081840152601f19601f82011690508083019250505050505050612b14565b611972600d5483838080601f016020809104026020016040519081016040528093929190818152602001838380828437600081840152601f19601f82011690508083019250505050505050612baf565b61197d600d54612c4a565b505050505050565b600081600073ffffffffffffffffffffffffffffffffffffffff166001600083815260200190815260200160002060009054906101000a900473ffffffffffffffffffffffffffffffffffffffff1673ffffffffffffffffffffffffffffffffffffffff1614156119f557600080fd5b600b600084815260200190815260200160002054915050919050565b611a2c83838360405180602001604052806000815250612cdf565b505050565b6040518060400160405280600681526020017f303138303032000000000000000000000000000000000000000000000000000081525081565b60006001600083815260200190815260200160002060009054906101000a900473ffffffffffffffffffffffffffffffffffffffff169050600073ffffffffffffffffffffffffffffffffffffffff168173ffffffffffffffffffffffffffffffffffffffff161415611adc57600080fd5b919050565b80600073ffffffffffffffffffffffffffffffffffffffff166001600083815260200190815260200160002060009054906101000a900473ffffffffffffffffffffffffffffffffffffffff1673ffffffffffffffffffffffffffffffffffffffff161415611b4f57600080fd5b60006001600084815260200190815260200160002060009054906101000a900473ffffffffffffffffffffffffffffffffffffffff1690508473ffffffffffffffffffffffffffffffffffffffff168173ffffffffffffffffffffffffffffffffffffffff1614611bbf57600080fd5b600073ffffffffffffffffffffffffffffffffffffffff168473ffffffffffffffffffffffffffffffffffffffff161415611bf957600080fd5b611c03848461294f565b5050505050565b60008073ffffffffffffffffffffffffffffffffffffffff168273ffffffffffffffffffffffffffffffffffffffff161415611c4557600080fd5b611c4e8261318c565b9050919050565b6040518060400160405280600681526020017f303138303031000000000000000000000000000000000000000000000000000081525081565b8160069080519060200190611ca4929190613526565b508060079080519060200190611cbb929190613526565b505050565b600c60009054906101000a900473ffffffffffffffffffffffffffffffffffffffff1681565b606060078054600181600116156101000203166002900480601f016020809104026020016040519081016040528092919081815260200182805460018160011615610100020316600290048015611d7e5780601f10611d5357610100808354040283529160200191611d7e565b820191906000526020600020905b815481529060010190602001808311611d6157829003601f168201915b5050505050905090565b600c60009054906101000a900473ffffffffffffffffffffffffffffffffffffffff1673ffffffffffffffffffffffffffffffffffffffff163373ffffffffffffffffffffffffffffffffffffffff16146040518060400160405280600681526020017f303138303031000000000000000000000000000000000000000000000000000081525090611eb5576040517f08c379a00000000000000000000000000000000000000000000000000000000081526004018080602001828103825283818151815260200191508051906020019080838360005b83811015611e7a578082015181840152602081019050611e5f565b50505050905090810190601f168015611ea75780820380516001836020036101000a031916815260200191505b509250505060405180910390fd5b50600d60008154809291906001019190505550611ed181612c4a565b50565b80600460003373ffffffffffffffffffffffffffffffffffffffff1673ffffffffffffffffffffffffffffffffffffffff16815260200190815260200160002060008473ffffffffffffffffffffffffffffffffffffffff1673ffffffffffffffffffffffffffffffffffffffff16815260200190815260200160002060006101000a81548160ff0219169083151502179055508173ffffffffffffffffffffffffffffffffffffffff163373ffffffffffffffffffffffffffffffffffffffff167f17307eab39ab6107e8899845ad3d59bd9653f200f220920489ca2b5937696c3183604051808215151515815260200191505060405180910390a35050565b600c60009054906101000a900473ffffffffffffffffffffffffffffffffffffffff1673ffffffffffffffffffffffffffffffffffffffff163373ffffffffffffffffffffffffffffffffffffffff16146040518060400160405280600681526020017f303138303031000000000000000000000000000000000000000000000000000081525090612102576040517f08c379a00000000000000000000000000000000000000000000000000000000081526004018080602001828103825283818151815260200191508051906020019080838360005b838110156120c75780820151818401526020810190506120ac565b50505050905090810190601f1680156120f45780820380516001836020036101000a031916815260200191505b509250505060405180910390fd5b5060008190506000606060008060008573ffffffffffffffffffffffffffffffffffffffff16639f989ce8896040518263ffffffff167c01000000000000000000000000000000000000000000000000000000000281526004018082815260200191505060006040518083038186803b15801561217e57600080fd5b505afa158015612192573d6000803e3d6000fd5b505050506040513d6000823e3d601f19601f8201168201806040525060a08110156121bc57600080fd5b810190808051906020019092919080516401000000008111156121de57600080fd5b828101905060208101848111156121f457600080fd5b815185600182028301116401000000008211171561221157600080fd5b5050929190602001805190602001909291908051906020019092919080519060200190929190505050945094509450945094505050505050505050565b61229e85858585858080601f016020809104026020016040519081016040528093929190818152602001838380828437600081840152601f19601f82011690508083019250505050505050612cdf565b5050505050565b606081600073ffffffffffffffffffffffffffffffffffffffff166001600083815260200190815260200160002060009054906101000a900473ffffffffffffffffffffffffffffffffffffffff1673ffffffffffffffffffffffffffffffffffffffff16141561231557600080fd5b600860008481526020019081526020016000208054600181600116156101000203166002900480601f0160208091040260200160405190810160405280929190818152602001828054600181600116156101000203166002900480156123bc5780601f10612391576101008083540402835291602001916123bc565b820191906000526020600020905b81548152906001019060200180831161239f57829003601f168201915b5050505050915050919050565b606081600073ffffffffffffffffffffffffffffffffffffffff166001600083815260200190815260200160002060009054906101000a900473ffffffffffffffffffffffffffffffffffffffff1673ffffffffffffffffffffffffffffffffffffffff16141561243957600080fd5b600560008481526020019081526020016000208054600181600116156101000203166002900480601f0160208091040260200160405190810160405280929190818152602001828054600181600116156101000203166002900480156124e05780601f106124b5576101008083540402835291602001916124e0565b820191906000526020600020905b8154815290600101906020018083116124c357829003601f168201915b5050505050915050919050565b6000600460008473ffffffffffffffffffffffffffffffffffffffff1673ffffffffffffffffffffffffffffffffffffffff16815260200190815260200160002060008373ffffffffffffffffffffffffffffffffffffffff1673ffffffffffffffffffffffffffffffffffffffff16815260200190815260200160002060009054906101000a900460ff16905092915050565b600c60009054906101000a900473ffffffffffffffffffffffffffffffffffffffff1673ffffffffffffffffffffffffffffffffffffffff163373ffffffffffffffffffffffffffffffffffffffff16146040518060400160405280600681526020017f3031383030310000000000000000000000000000000000000000000000000000815250906126ae576040517f08c379a00000000000000000000000000000000000000000000000000000000081526004018080602001828103825283818151815260200191508051906020019080838360005b83811015612673578082015181840152602081019050612658565b50505050905090810190601f1680156126a05780820380516001836020036101000a031916815260200191505b509250505060405180910390fd5b50600073ffffffffffffffffffffffffffffffffffffffff168173ffffffffffffffffffffffffffffffffffffffff1614156040518060400160405280600681526020017f3031383030320000000000000000000000000000000000000000000000000000815250906127bc576040517f08c379a00000000000000000000000000000000000000000000000000000000081526004018080602001828103825283818151815260200191508051906020019080838360005b83811015612781578082015181840152602081019050612766565b50505050905090810190601f1680156127ae5780820380516001836020036101000a031916815260200191505b509250505060405180910390fd5b508073ffffffffffffffffffffffffffffffffffffffff16600c60009054906101000a900473ffffffffffffffffffffffffffffffffffffffff1673ffffffffffffffffffffffffffffffffffffffff167f8be0079c531659141344cd1fd0a4f28419497f9722a3daafe3b4186f6b6457e060405160405180910390a380600c60006101000a81548173ffffffffffffffffffffffffffffffffffffffff021916908373ffffffffffffffffffffffffffffffffffffffff16021790555050565b81600073ffffffffffffffffffffffffffffffffffffffff166001600083815260200190815260200160002060009054906101000a900473ffffffffffffffffffffffffffffffffffffffff1673ffffffffffffffffffffffffffffffffffffffff1614156128eb57600080fd5b600a60008481526020019081526020016000206000815480929190600101919050555081600960008581526020019081526020016000206000600a600087815260200190815260200160002054815260200190815260200160002081905550505050565b60006001600083815260200190815260200160002060009054906101000a900473ffffffffffffffffffffffffffffffffffffffff169050612990826131d5565b61299a8183613276565b6129a483836133a1565b818373ffffffffffffffffffffffffffffffffffffffff168273ffffffffffffffffffffffffffffffffffffffff167fddf252ad1be2c89b69c2b068fc378daa952ba7f163c4a11628f55a4df523b3ef60405160405180910390a4505050565b600073ffffffffffffffffffffffffffffffffffffffff168273ffffffffffffffffffffffffffffffffffffffff161415612a3e57600080fd5b600073ffffffffffffffffffffffffffffffffffffffff166001600083815260200190815260200160002060009054906101000a900473ffffffffffffffffffffffffffffffffffffffff1673ffffffffffffffffffffffffffffffffffffffff1614612aaa57600080fd5b612ab482826133a1565b808273ffffffffffffffffffffffffffffffffffffffff16600073ffffffffffffffffffffffffffffffffffffffff167fddf252ad1be2c89b69c2b068fc378daa952ba7f163c4a11628f55a4df523b3ef60405160405180910390a45050565b81600073ffffffffffffffffffffffffffffffffffffffff166001600083815260200190815260200160002060009054906101000a900473ffffffffffffffffffffffffffffffffffffffff1673ffffffffffffffffffffffffffffffffffffffff161415612b8257600080fd5b81600860008581526020019081526020016000209080519060200190612ba9929190613526565b50505050565b81600073ffffffffffffffffffffffffffffffffffffffff166001600083815260200190815260200160002060009054906101000a900473ffffffffffffffffffffffffffffffffffffffff1673ffffffffffffffffffffffffffffffffffffffff161415612c1d57600080fd5b81600560008581526020019081526020016000209080519060200190612c44929190613526565b50505050565b80600073ffffffffffffffffffffffffffffffffffffffff166001600083815260200190815260200160002060009054906101000a900473ffffffffffffffffffffffffffffffffffffffff1673ffffffffffffffffffffffffffffffffffffffff161415612cb857600080fd5b600b6000838152602001908152602001600020600081548092919060010191905055505050565b8160006001600083815260200190815260200160002060009054906101000a900473ffffffffffffffffffffffffffffffffffffffff1690503373ffffffffffffffffffffffffffffffffffffffff168173ffffffffffffffffffffffffffffffffffffffff161480612db057503373ffffffffffffffffffffffffffffffffffffffff166002600084815260200190815260200160002060009054906101000a900473ffffffffffffffffffffffffffffffffffffffff1673ffffffffffffffffffffffffffffffffffffffff16145b80612e415750600460008273ffffffffffffffffffffffffffffffffffffffff1673ffffffffffffffffffffffffffffffffffffffff16815260200190815260200160002060003373ffffffffffffffffffffffffffffffffffffffff1673ffffffffffffffffffffffffffffffffffffffff16815260200190815260200160002060009054906101000a900460ff165b612e4a57600080fd5b83600073ffffffffffffffffffffffffffffffffffffffff166001600083815260200190815260200160002060009054906101000a900473ffffffffffffffffffffffffffffffffffffffff1673ffffffffffffffffffffffffffffffffffffffff161415612eb857600080fd5b60006001600087815260200190815260200160002060009054906101000a900473ffffffffffffffffffffffffffffffffffffffff1690508773ffffffffffffffffffffffffffffffffffffffff168173ffffffffffffffffffffffffffffffffffffffff1614612f2857600080fd5b600073ffffffffffffffffffffffffffffffffffffffff168773ffffffffffffffffffffffffffffffffffffffff161415612f6257600080fd5b612f6c878761294f565b612f8b8773ffffffffffffffffffffffffffffffffffffffff166134f9565b156131825760008773ffffffffffffffffffffffffffffffffffffffff1663150b7a02338b8a8a6040518563ffffffff167c0100000000000000000000000000000000000000000000000000000000028152600401808573ffffffffffffffffffffffffffffffffffffffff1673ffffffffffffffffffffffffffffffffffffffff1681526020018473ffffffffffffffffffffffffffffffffffffffff1673ffffffffffffffffffffffffffffffffffffffff16815260200183815260200180602001828103825283818151815260200191508051906020019080838360005b8381101561308757808201518184015260208101905061306c565b50505050905090810190601f1680156130b45780820380516001836020036101000a031916815260200191505b5095505050505050602060405180830381600087803b1580156130d657600080fd5b505af11580156130ea573d6000803e3d6000fd5b505050506040513d602081101561310057600080fd5b8101908080519060200190929190505050905063150b7a027c0100000000000000000000000000000000000000000000000000000000027bffffffffffffffffffffffffffffffffffffffffffffffffffffffff1916817bffffffffffffffffffffffffffffffffffffffffffffffffffffffff19161461318057600080fd5b505b5050505050505050565b6000600360008373ffffffffffffffffffffffffffffffffffffffff1673ffffffffffffffffffffffffffffffffffffffff168152602001908152602001600020549050919050565b600073ffffffffffffffffffffffffffffffffffffffff166002600083815260200190815260200160002060009054906101000a900473ffffffffffffffffffffffffffffffffffffffff1673ffffffffffffffffffffffffffffffffffffffff1614613273576002600082815260200190815260200160002060006101000a81549073ffffffffffffffffffffffffffffffffffffffff02191690555b50565b8173ffffffffffffffffffffffffffffffffffffffff166001600083815260200190815260200160002060009054906101000a900473ffffffffffffffffffffffffffffffffffffffff1673ffffffffffffffffffffffffffffffffffffffff16146132e157600080fd5b6001600360008473ffffffffffffffffffffffffffffffffffffffff1673ffffffffffffffffffffffffffffffffffffffff1681526020019081526020016000205403600360008473ffffffffffffffffffffffffffffffffffffffff1673ffffffffffffffffffffffffffffffffffffffff168152602001908152602001600020819055506001600082815260200190815260200160002060006101000a81549073ffffffffffffffffffffffffffffffffffffffff02191690555050565b600073ffffffffffffffffffffffffffffffffffffffff166001600083815260200190815260200160002060009054906101000a900473ffffffffffffffffffffffffffffffffffffffff1673ffffffffffffffffffffffffffffffffffffffff161461340d57600080fd5b816001600083815260200190815260200160002060006101000a81548173ffffffffffffffffffffffffffffffffffffffff021916908373ffffffffffffffffffffffffffffffffffffffff1602179055506134b26001600360008573ffffffffffffffffffffffffffffffffffffffff1673ffffffffffffffffffffffffffffffffffffffff1681526020019081526020016000205461350c90919063ffffffff16565b600360008473ffffffffffffffffffffffffffffffffffffffff1673ffffffffffffffffffffffffffffffffffffffff168152602001908152602001600020819055505050565b600080823b905060008111915050919050565b600081830190508281101561352057600080fd5b92915050565b828054600181600116156101000203166002900490600052602060002090601f016020900481019282601f1061356757805160ff1916838001178555613595565b82800160010185558215613595579182015b82811115613594578251825591602001919060010190613579565b5b5090506135a291906135a6565b5090565b6135c891905b808211156135c45760008160009055506001016135ac565b5090565b9056fea165627a7a72305820da21227263ec2d27e4b3fdb9ee1a6245cae0d15d6783af33780d044e25e190d20029",
  "source": "pragma solidity ^0.5.6;\n\nimport \"./nf-token-metadata.sol\";\nimport \"./ownable.sol\";\nimport \"./Punto0.sol\";\n\n/**\n * @dev This is an example contract implementation of NFToken with metadata extension.\n */\ncontract MyArtSale is\n  NFTokenMetadata,\n  Ownable\n{\n\n  /**\n   * @dev Contract constructor. Sets metadata extension `name` and `symbol`.\n   */\n   uint public count;\n  constructor()\n    public\n  {\n    nftName = \"Lot of Dishes\";\n    nftSymbol = \"DSH\";\n  }\n  function prova(string memory _nome, string memory _symbol) public{\n    nftName = _nome;\n    nftSymbol = _symbol;\n  }\n\n  /**\n   * @dev Mints a new NFT.\n   * @param _to The address that will own the minted NFT.\n   * @param _tokenId of the NFT to be minted by the msg.sender.\n   * @param _uri String representing RFC 3986 URI.\n   */\n  function mint(\n    address _to,\n    uint256 _tokenId,\n    string calldata _uri,\n    string calldata _prova\n\n  )\n    external\n    onlyOwner\n  {\n      count++;\n    super._mint(_to, count);\n    super._setTokenUri(count, _uri);\n    super._setTokenProva(count, _prova);\n    super._addQuantity(count);\n\n  }\n    function mintAnother(\n    uint256 _tokenId\n  )\n    external\n    onlyOwner\n  {\n      count++;\n    super._addQuantity(_tokenId);\n  }\n\n\n    function set_ingrediente(\n    uint256 _tokenId,\n    uint256 _ingrediente\n  )\n    external\n    onlyOwner\n  {\n    super._setTokenIngrediente0(_tokenId, _ingrediente);\n  }\n\n     function altro(\n    uint256 _ingrediente,\n    address _contractAddress\n  )\n    external\n    onlyOwner\n  {\n    Punto0 p = Punto0(_contractAddress);\n    (uint256 a, string memory b, uint256 c, address d, uint256 e) = p.listOfIngredients(_ingrediente);\n    \n  }\n\n\n\n}\n",
  "sourcePath": "/Users/simone/Desktop/fusion/contracts/MyArtSale.sol",
  "compiler": {
    "name": "solc",
    "version": "0.5.6+commit.b259423e.Emscripten.clang"
  },
  "schemaVersion": "3.0.0-beta.2",
  "updatedAt": "2019-04-29T10:28:26.571Z",
  "devdoc": {
    "details": "This is an example contract implementation of NFToken with metadata extension.",
    "methods": {
      "approve(address,uint256)": {
        "details": "Set or reaffirm the approved address for an NFT. This function can be changed to payable.",
        "params": {
          "_approved": "Address to be approved for the given NFT ID.",
          "_tokenId": "ID of the token to be approved."
        }
      },
      "balanceOf(address)": {
        "details": "Returns the number of NFTs owned by `_owner`. NFTs assigned to the zero address are considered invalid, and this function throws for queries about the zero address.",
        "params": {
          "_owner": "Address for whom to query the balance."
        },
        "return": "Balance of _owner."
      },
      "getApproved(uint256)": {
        "details": "Get the approved address for a single NFT.",
        "params": {
          "_tokenId": "ID of the NFT to query the approval of."
        },
        "return": "Address that _tokenId is approved for. "
      },
      "isApprovedForAll(address,address)": {
        "details": "Checks if `_operator` is an approved operator for `_owner`.",
        "params": {
          "_operator": "The address that acts on behalf of the owner.",
          "_owner": "The address that owns the NFTs."
        },
        "return": "True if approved for all, false otherwise."
      },
      "mint(address,uint256,string,string)": {
        "details": "Mints a new NFT.",
        "params": {
          "_to": "The address that will own the minted NFT.",
          "_tokenId": "of the NFT to be minted by the msg.sender.",
          "_uri": "String representing RFC 3986 URI."
        }
      },
      "name()": {
        "details": "Returns a descriptive name for a collection of NFTokens.",
        "return": "Representing name."
      },
      "ownerOf(uint256)": {
        "details": "Returns the address of the owner of the NFT. NFTs assigned to zero address are considered invalid, and queries about them do throw.",
        "params": {
          "_tokenId": "The identifier for an NFT."
        },
        "return": "Address of _tokenId owner."
      },
      "safeTransferFrom(address,address,uint256)": {
        "details": "Transfers the ownership of an NFT from one address to another address. This function can be changed to payable.",
        "params": {
          "_from": "The current owner of the NFT.",
          "_to": "The new owner.",
          "_tokenId": "The NFT to transfer."
        }
      },
      "safeTransferFrom(address,address,uint256,bytes)": {
        "details": "Transfers the ownership of an NFT from one address to another address. This function can be changed to payable.",
        "params": {
          "_data": "Additional data with no specified format, sent in call to `_to`.",
          "_from": "The current owner of the NFT.",
          "_to": "The new owner.",
          "_tokenId": "The NFT to transfer."
        }
      },
      "setApprovalForAll(address,bool)": {
        "details": "Enables or disables approval for a third party (\"operator\") to manage all of `msg.sender`'s assets. It also emits the ApprovalForAll event.",
        "params": {
          "_approved": "True if the operators is approved, false to revoke approval.",
          "_operator": "Address to add to the set of authorized operators."
        }
      },
      "supportsInterface(bytes4)": {
        "details": "Function to check which interfaces are suported by this contract.",
        "params": {
          "_interfaceID": "Id of the interface."
        },
        "return": "True if _interfaceID is supported, false otherwise."
      },
      "symbol()": {
        "details": "Returns an abbreviated name for NFTokens.",
        "return": "Representing symbol."
      },
      "tokenURI(uint256)": {
        "details": "A distinct URI (RFC 3986) for a given NFT.",
        "params": {
          "_tokenId": "Id for which we want uri."
        },
        "return": "URI of _tokenId."
      },
      "transferFrom(address,address,uint256)": {
        "details": "Throws unless `msg.sender` is the current owner, an authorized operator, or the approved address for this NFT. Throws if `_from` is not the current owner. Throws if `_to` is the zero address. Throws if `_tokenId` is not a valid NFT. This function can be changed to payable.",
        "params": {
          "_from": "The current owner of the NFT.",
          "_to": "The new owner.",
          "_tokenId": "The NFT to transfer."
        }
      },
      "transferOwnership(address)": {
        "details": "Allows the current owner to transfer control of the contract to a newOwner.",
        "params": {
          "_newOwner": "The address to transfer ownership to."
        }
      }
    }
  },
  "userdoc": {
    "methods": {
      "approve(address,uint256)": {
        "notice": "The zero address indicates there is no approved address. Throws unless `msg.sender` is the current NFT owner, or an authorized operator of the current owner."
      },
      "getApproved(uint256)": {
        "notice": "Throws if `_tokenId` is not a valid NFT."
      },
      "safeTransferFrom(address,address,uint256)": {
        "notice": "This works identically to the other function with an extra data parameter, except this function just sets data to \"\""
      },
      "safeTransferFrom(address,address,uint256,bytes)": {
        "notice": "Throws unless `msg.sender` is the current owner, an authorized operator, or the approved address for this NFT. Throws if `_from` is not the current owner. Throws if `_to` is the zero address. Throws if `_tokenId` is not a valid NFT. When transfer is complete, this function checks if `_to` is a smart contract (code size > 0). If so, it calls  `onERC721Received` on `_to` and throws if the return value is not  `bytes4(keccak256(\"onERC721Received(address,uint256,bytes)\"))`."
      },
      "setApprovalForAll(address,bool)": {
        "notice": "This works even if sender doesn't own any tokens at the time."
      },
      "tokenProva(uint256)": {
        "notice": "/////////"
      },
      "transferFrom(address,address,uint256)": {
        "notice": "The caller is responsible to confirm that `_to` is capable of receiving NFTs or else they maybe be permanently lost."
      }
    }
  }
}