{
  "contractName": "Punto0",
  "abi": [
    {
      "constant": true,
      "inputs": [
        {
          "name": "",
          "type": "uint256"
        }
      ],
      "name": "activeRequest",
      "outputs": [
        {
          "name": "",
          "type": "bool"
        }
      ],
      "payable": false,
      "stateMutability": "view",
      "type": "function",
      "signature": "0x05d4b35a"
    },
    {
      "constant": true,
      "inputs": [
        {
          "name": "",
          "type": "uint256"
        }
      ],
      "name": "order",
      "outputs": [
        {
          "name": "idRichiesta",
          "type": "uint256"
        },
        {
          "name": "name",
          "type": "string"
        },
        {
          "name": "quality",
          "type": "uint256"
        },
        {
          "name": "fornitore",
          "type": "address"
        },
        {
          "name": "timestamp",
          "type": "uint256"
        },
        {
          "name": "spedito",
          "type": "bool"
        },
        {
          "name": "checkCir",
          "type": "bool"
        }
      ],
      "payable": false,
      "stateMutability": "view",
      "type": "function",
      "signature": "0x21603f43"
    },
    {
      "constant": true,
      "inputs": [],
      "name": "orderCount",
      "outputs": [
        {
          "name": "",
          "type": "uint256"
        }
      ],
      "payable": false,
      "stateMutability": "view",
      "type": "function",
      "signature": "0x2453ffa8"
    },
    {
      "constant": true,
      "inputs": [
        {
          "name": "",
          "type": "uint256"
        }
      ],
      "name": "existRequest",
      "outputs": [
        {
          "name": "",
          "type": "bool"
        }
      ],
      "payable": false,
      "stateMutability": "view",
      "type": "function",
      "signature": "0x24a68ad4"
    },
    {
      "constant": true,
      "inputs": [
        {
          "name": "",
          "type": "uint256"
        }
      ],
      "name": "valueOfBid",
      "outputs": [
        {
          "name": "",
          "type": "uint256"
        }
      ],
      "payable": false,
      "stateMutability": "view",
      "type": "function",
      "signature": "0x2824aeed"
    },
    {
      "constant": true,
      "inputs": [
        {
          "name": "",
          "type": "uint256"
        }
      ],
      "name": "requestToOrder",
      "outputs": [
        {
          "name": "",
          "type": "uint256"
        }
      ],
      "payable": false,
      "stateMutability": "view",
      "type": "function",
      "signature": "0x32010df8"
    },
    {
      "constant": true,
      "inputs": [],
      "name": "prova1",
      "outputs": [
        {
          "name": "",
          "type": "string"
        }
      ],
      "payable": false,
      "stateMutability": "view",
      "type": "function",
      "signature": "0x530dd0d1"
    },
    {
      "constant": true,
      "inputs": [],
      "name": "requestCount",
      "outputs": [
        {
          "name": "",
          "type": "uint256"
        }
      ],
      "payable": false,
      "stateMutability": "view",
      "type": "function",
      "signature": "0x5badbe4c"
    },
    {
      "constant": true,
      "inputs": [],
      "name": "bidderCount",
      "outputs": [
        {
          "name": "",
          "type": "uint256"
        }
      ],
      "payable": false,
      "stateMutability": "view",
      "type": "function",
      "signature": "0x70d29c11"
    },
    {
      "constant": true,
      "inputs": [],
      "name": "ingredienteCount",
      "outputs": [
        {
          "name": "",
          "type": "uint256"
        }
      ],
      "payable": false,
      "stateMutability": "view",
      "type": "function",
      "signature": "0x79439842"
    },
    {
      "constant": true,
      "inputs": [
        {
          "name": "",
          "type": "address"
        }
      ],
      "name": "alreadyBidder",
      "outputs": [
        {
          "name": "",
          "type": "bool"
        }
      ],
      "payable": false,
      "stateMutability": "view",
      "type": "function",
      "signature": "0x7a8eb68c"
    },
    {
      "constant": true,
      "inputs": [
        {
          "name": "",
          "type": "uint256"
        }
      ],
      "name": "bidder",
      "outputs": [
        {
          "name": "idRichiesta",
          "type": "uint256"
        },
        {
          "name": "offerente",
          "type": "address"
        },
        {
          "name": "prezzo",
          "type": "uint256"
        },
        {
          "name": "quality",
          "type": "uint256"
        },
        {
          "name": "vincente",
          "type": "bool"
        },
        {
          "name": "terminata",
          "type": "bool"
        },
        {
          "name": "name",
          "type": "string"
        },
        {
          "name": "coordinate",
          "type": "uint256"
        }
      ],
      "payable": false,
      "stateMutability": "view",
      "type": "function",
      "signature": "0x8b3a5fd9"
    },
    {
      "constant": true,
      "inputs": [
        {
          "name": "",
          "type": "uint256"
        }
      ],
      "name": "winnerOf",
      "outputs": [
        {
          "name": "",
          "type": "uint256"
        }
      ],
      "payable": false,
      "stateMutability": "view",
      "type": "function",
      "signature": "0x8cb5d700"
    },
    {
      "constant": true,
      "inputs": [],
      "name": "owner",
      "outputs": [
        {
          "name": "",
          "type": "address"
        }
      ],
      "payable": false,
      "stateMutability": "view",
      "type": "function",
      "signature": "0x8da5cb5b"
    },
    {
      "constant": true,
      "inputs": [],
      "name": "activeRequestCount",
      "outputs": [
        {
          "name": "",
          "type": "uint256"
        }
      ],
      "payable": false,
      "stateMutability": "view",
      "type": "function",
      "signature": "0x954d046a"
    },
    {
      "constant": true,
      "inputs": [
        {
          "name": "",
          "type": "uint256"
        }
      ],
      "name": "listOfIngredients",
      "outputs": [
        {
          "name": "id",
          "type": "uint256"
        },
        {
          "name": "name",
          "type": "string"
        },
        {
          "name": "cordinate",
          "type": "uint256"
        },
        {
          "name": "fornitore",
          "type": "address"
        },
        {
          "name": "quantity",
          "type": "uint256"
        }
      ],
      "payable": false,
      "stateMutability": "view",
      "type": "function",
      "signature": "0x9f989ce8"
    },
    {
      "constant": true,
      "inputs": [
        {
          "name": "",
          "type": "uint256"
        }
      ],
      "name": "request",
      "outputs": [
        {
          "name": "id",
          "type": "uint256"
        },
        {
          "name": "name",
          "type": "string"
        },
        {
          "name": "quality",
          "type": "uint256"
        },
        {
          "name": "timestamp",
          "type": "uint256"
        },
        {
          "name": "attiva",
          "type": "bool"
        },
        {
          "name": "quantity",
          "type": "uint256"
        }
      ],
      "payable": false,
      "stateMutability": "view",
      "type": "function",
      "signature": "0xd845a4b3"
    },
    {
      "constant": true,
      "inputs": [],
      "name": "contractAddress",
      "outputs": [
        {
          "name": "",
          "type": "address"
        }
      ],
      "payable": false,
      "stateMutability": "view",
      "type": "function",
      "signature": "0xf6b4dfb4"
    },
    {
      "inputs": [],
      "payable": false,
      "stateMutability": "nonpayable",
      "type": "constructor",
      "signature": "constructor"
    },
    {
      "constant": false,
      "inputs": [
        {
          "name": "_name",
          "type": "string"
        },
        {
          "name": "_quality",
          "type": "uint256"
        },
        {
          "name": "_quantity",
          "type": "uint256"
        }
      ],
      "name": "addRequest",
      "outputs": [],
      "payable": false,
      "stateMutability": "nonpayable",
      "type": "function",
      "signature": "0x9e0591fd"
    },
    {
      "constant": false,
      "inputs": [
        {
          "name": "_idRichiesta",
          "type": "uint256"
        },
        {
          "name": "_offerta",
          "type": "uint256"
        },
        {
          "name": "_quality",
          "type": "uint256"
        },
        {
          "name": "_coordinate",
          "type": "uint256"
        }
      ],
      "name": "addOffer",
      "outputs": [],
      "payable": false,
      "stateMutability": "nonpayable",
      "type": "function",
      "signature": "0x412225c4"
    },
    {
      "constant": false,
      "inputs": [
        {
          "name": "_idRichiesta",
          "type": "uint256"
        }
      ],
      "name": "endRequest",
      "outputs": [],
      "payable": false,
      "stateMutability": "nonpayable",
      "type": "function",
      "signature": "0x17f44048"
    },
    {
      "constant": false,
      "inputs": [
        {
          "name": "_idRichiesta",
          "type": "uint256"
        }
      ],
      "name": "checkFornitore",
      "outputs": [],
      "payable": false,
      "stateMutability": "nonpayable",
      "type": "function",
      "signature": "0x9c199da3"
    },
    {
      "constant": false,
      "inputs": [
        {
          "name": "_idRichiesta",
          "type": "uint256"
        },
        {
          "name": "_check",
          "type": "bool"
        }
      ],
      "name": "checkCir",
      "outputs": [],
      "payable": false,
      "stateMutability": "nonpayable",
      "type": "function",
      "signature": "0x9d6040f1"
    },
    {
      "constant": false,
      "inputs": [
        {
          "name": "_nome",
          "type": "string"
        },
        {
          "name": "_coordinate",
          "type": "uint256"
        },
        {
          "name": "_fornitore",
          "type": "address"
        },
        {
          "name": "_quantity",
          "type": "uint256"
        }
      ],
      "name": "setStorage",
      "outputs": [],
      "payable": false,
      "stateMutability": "nonpayable",
      "type": "function",
      "signature": "0x3bc3ba40"
    }
  ],
  "bytecode": "0x608060405234801561001057600080fd5b50336000806101000a81548173ffffffffffffffffffffffffffffffffffffffff021916908373ffffffffffffffffffffffffffffffffffffffff16021790555030600160006101000a81548173ffffffffffffffffffffffffffffffffffffffff021916908373ffffffffffffffffffffffffffffffffffffffff1602179055506120c4806100a16000396000f3fe608060405234801561001057600080fd5b5060043610610175576000357c01000000000000000000000000000000000000000000000000000000009004806379439842116100e05780639c199da3116100995780639c199da3146108055780639d6040f1146108335780639e0591fd1461086d5780639f989ce81461093c578063d845a4b314610a2b578063f6b4dfb414610af957610175565b806379439842146105d55780637a8eb68c146105f35780638b3a5fd91461064f5780638cb5d7001461075b5780638da5cb5b1461079d578063954d046a146107e757610175565b806332010df81161013257806332010df8146103995780633bc3ba40146103db578063412225c4146104ca578063530dd0d1146105165780635badbe4c1461059957806370d29c11146105b757610175565b806305d4b35a1461017a57806317f44048146101c057806321603f43146101ee5780632453ffa8146102f357806324a68ad4146103115780632824aeed14610357575b600080fd5b6101a66004803603602081101561019057600080fd5b8101908080359060200190929190505050610b43565b604051808215151515815260200191505060405180910390f35b6101ec600480360360208110156101d657600080fd5b8101908080359060200190929190505050610b63565b005b61021a6004803603602081101561020457600080fd5b8101908080359060200190929190505050610ccb565b60405180888152602001806020018781526020018673ffffffffffffffffffffffffffffffffffffffff1673ffffffffffffffffffffffffffffffffffffffff1681526020018581526020018415151515815260200183151515158152602001828103825288818151815260200191508051906020019080838360005b838110156102b2578082015181840152602081019050610297565b50505050905090810190601f1680156102df5780820380516001836020036101000a031916815260200191505b509850505050505050505060405180910390f35b6102fb610ddf565b6040518082815260200191505060405180910390f35b61033d6004803603602081101561032757600080fd5b8101908080359060200190929190505050610de5565b604051808215151515815260200191505060405180910390f35b6103836004803603602081101561036d57600080fd5b8101908080359060200190929190505050610e05565b6040518082815260200191505060405180910390f35b6103c5600480360360208110156103af57600080fd5b8101908080359060200190929190505050610e1d565b6040518082815260200191505060405180910390f35b6104c8600480360360808110156103f157600080fd5b810190808035906020019064010000000081111561040e57600080fd5b82018360208201111561042057600080fd5b8035906020019184600183028401116401000000008311171561044257600080fd5b91908080601f016020809104026020016040519081016040528093929190818152602001838380828437600081840152601f19601f82011690508083019250505050505050919291929080359060200190929190803573ffffffffffffffffffffffffffffffffffffffff16906020019092919080359060200190929190505050610e35565b005b610514600480360360808110156104e057600080fd5b8101908080359060200190929190803590602001909291908035906020019092919080359060200190929190505050610f26565b005b61051e6111c9565b6040518080602001828103825283818151815260200191508051906020019080838360005b8381101561055e578082015181840152602081019050610543565b50505050905090810190601f16801561058b5780820380516001836020036101000a031916815260200191505b509250505060405180910390f35b6105a1611267565b6040518082815260200191505060405180910390f35b6105bf61126d565b6040518082815260200191505060405180910390f35b6105dd611273565b6040518082815260200191505060405180910390f35b6106356004803603602081101561060957600080fd5b81019080803573ffffffffffffffffffffffffffffffffffffffff169060200190929190505050611279565b604051808215151515815260200191505060405180910390f35b61067b6004803603602081101561066557600080fd5b8101908080359060200190929190505050611299565b604051808981526020018873ffffffffffffffffffffffffffffffffffffffff1673ffffffffffffffffffffffffffffffffffffffff168152602001878152602001868152602001851515151581526020018415151515815260200180602001838152602001828103825284818151815260200191508051906020019080838360005b838110156107195780820151818401526020810190506106fe565b50505050905090810190601f1680156107465780820380516001836020036101000a031916815260200191505b50995050505050505050505060405180910390f35b6107876004803603602081101561077157600080fd5b81019080803590602001909291905050506113b3565b6040518082815260200191505060405180910390f35b6107a56113cb565b604051808273ffffffffffffffffffffffffffffffffffffffff1673ffffffffffffffffffffffffffffffffffffffff16815260200191505060405180910390f35b6107ef6113f0565b6040518082815260200191505060405180910390f35b6108316004803603602081101561081b57600080fd5b81019080803590602001909291905050506113f6565b005b61086b6004803603604081101561084957600080fd5b81019080803590602001909291908035151590602001909291905050506114c2565b005b61093a6004803603606081101561088357600080fd5b81019080803590602001906401000000008111156108a057600080fd5b8201836020820111156108b257600080fd5b803590602001918460018302840111640100000000831117156108d457600080fd5b91908080601f016020809104026020016040519081016040528093929190818152602001838380828437600081840152601f19601f8201169050808301925050505050505091929192908035906020019092919080359060200190929190505050611728565b005b6109686004803603602081101561095257600080fd5b81019080803590602001909291905050506118f0565b60405180868152602001806020018581526020018473ffffffffffffffffffffffffffffffffffffffff1673ffffffffffffffffffffffffffffffffffffffff168152602001838152602001828103825286818151815260200191508051906020019080838360005b838110156109ec5780820151818401526020810190506109d1565b50505050905090810190601f168015610a195780820380516001836020036101000a031916815260200191505b50965050505050505060405180910390f35b610a5760048036036020811015610a4157600080fd5b81019080803590602001909291905050506119de565b604051808781526020018060200186815260200185815260200184151515158152602001838152602001828103825287818151815260200191508051906020019080838360005b83811015610ab9578082015181840152602081019050610a9e565b50505050905090810190601f168015610ae65780820380516001836020036101000a031916815260200191505b5097505050505050505060405180910390f35b610b01611abf565b604051808273ffffffffffffffffffffffffffffffffffffffff1673ffffffffffffffffffffffffffffffffffffffff16815260200191505060405180910390f35b60096020528060005260406000206000915054906101000a900460ff1681565b6000809054906101000a900473ffffffffffffffffffffffffffffffffffffffff1673ffffffffffffffffffffffffffffffffffffffff163373ffffffffffffffffffffffffffffffffffffffff1614610bbc57600080fd5b600081118015610bce57506008548111155b610bd757600080fd5b60016007600083815260200190815260200160002060040160006101000a81548160ff0219169083151502179055610c0e57600080fd5b6000610c1982611ae5565b905060016002600083815260200190815260200160002060040160006101000a81548160ff02191690831515021790555080600660008481526020019081526020016000208190555060006007600084815260200190815260200160002060040160006101000a81548160ff02191690831515021790555060006009600084815260200190815260200160002060006101000a81548160ff021916908315150217905550610cc78282611da0565b5050565b600c602052806000526040600020600091509050806000015490806001018054600181600116156101000203166002900480601f016020809104026020016040519081016040528092919081815260200182805460018160011615610100020316600290048015610d7d5780601f10610d5257610100808354040283529160200191610d7d565b820191906000526020600020905b815481529060010190602001808311610d6057829003601f168201915b5050505050908060020154908060030160009054906101000a900473ffffffffffffffffffffffffffffffffffffffff16908060040154908060050160009054906101000a900460ff16908060050160019054906101000a900460ff16905087565b600d5481565b600b6020528060005260406000206000915054906101000a900460ff1681565b600e6020528060005260406000206000915090505481565b600f6020528060005260406000206000915090505481565b6011600081548092919060010191905055506040518060a0016040528060115481526020018581526020018481526020018373ffffffffffffffffffffffffffffffffffffffff16815260200182815250601060006011548152602001908152602001600020600082015181600001556020820151816001019080519060200190610ec1929190611ff3565b506040820151816002015560608201518160030160006101000a81548173ffffffffffffffffffffffffffffffffffffffff021916908373ffffffffffffffffffffffffffffffffffffffff1602179055506080820151816004015590505050505050565b600084118015610f3857506008548411155b610f4157600080fd5b6007600085815260200190815260200160002060040160009054906101000a900460ff16610f6e57600080fd5b60076000600854815260200190815260200160002060040160009054906101000a900460ff16610f9d57600080fd5b6003600081548092919060010191905055506040518061010001604052808581526020013373ffffffffffffffffffffffffffffffffffffffff168152602001848152602001838152602001600015158152602001600015158152602001600760008781526020019081526020016000206001018054600181600116156101000203166002900480601f0160208091040260200160405190810160405280929190818152602001828054600181600116156101000203166002900480156110a55780601f1061107a576101008083540402835291602001916110a5565b820191906000526020600020905b81548152906001019060200180831161108857829003601f168201915b50505050508152602001828152506002600060035481526020019081526020016000206000820151816000015560208201518160010160006101000a81548173ffffffffffffffffffffffffffffffffffffffff021916908373ffffffffffffffffffffffffffffffffffffffff160217905550604082015181600201556060820151816003015560808201518160040160006101000a81548160ff02191690831515021790555060a08201518160040160016101000a81548160ff02191690831515021790555060c0820151816005019080519060200190611189929190611ff3565b5060e082015181600601559050506001600b600086815260200190815260200160002060006101000a81548160ff02191690831515021790555050505050565b60048054600181600116156101000203166002900480601f01602080910402602001604051908101604052809291908181526020018280546001816001161561010002031660029004801561125f5780601f106112345761010080835404028352916020019161125f565b820191906000526020600020905b81548152906001019060200180831161124257829003601f168201915b505050505081565b60085481565b60035481565b60115481565b60056020528060005260406000206000915054906101000a900460ff1681565b60026020528060005260406000206000915090508060000154908060010160009054906101000a900473ffffffffffffffffffffffffffffffffffffffff16908060020154908060030154908060040160009054906101000a900460ff16908060040160019054906101000a900460ff1690806005018054600181600116156101000203166002900480601f0160208091040260200160405190810160405280929190818152602001828054600181600116156101000203166002900480156113a35780601f10611378576101008083540402835291602001916113a3565b820191906000526020600020905b81548152906001019060200180831161138657829003601f168201915b5050505050908060060154905088565b60066020528060005260406000206000915090505481565b6000809054906101000a900473ffffffffffffffffffffffffffffffffffffffff1681565b600a5481565b600260006006600084815260200190815260200160002054815260200190815260200160002060010160009054906101000a900473ffffffffffffffffffffffffffffffffffffffff1673ffffffffffffffffffffffffffffffffffffffff163373ffffffffffffffffffffffffffffffffffffffff161461147757600080fd5b6000600f60008381526020019081526020016000205490506001600c600083815260200190815260200160002060050160006101000a81548160ff0219169083151502179055505050565b6000809054906101000a900473ffffffffffffffffffffffffffffffffffffffff1673ffffffffffffffffffffffffffffffffffffffff163373ffffffffffffffffffffffffffffffffffffffff161461151b57600080fd5b6000600f6000848152602001908152602001600020549050600115158215151415611722576001600c600083815260200190815260200160002060050160016101000a81548160ff0219169083151502179055506002600082815260200190815260200160002060010160009054906101000a900473ffffffffffffffffffffffffffffffffffffffff1673ffffffffffffffffffffffffffffffffffffffff166108fc600e6000848152602001908152602001600020549081150290604051600060405180830381858888f193505050505061171d600c60008381526020019081526020016000206001018054600181600116156101000203166002900480601f01602080910402602001604051908101604052809291908181526020018280546001816001161561010002031660029004801561169b5780601f106116705761010080835404028352916020019161169b565b820191906000526020600020905b81548152906001019060200180831161167e57829003601f168201915b5050505050600260006006600088815260200190815260200160002054815260200190815260200160002060060154600c600085815260200190815260200160002060030160009054906101000a900473ffffffffffffffffffffffffffffffffffffffff166007600088815260200190815260200160002060050154610e35565b611723565b5b505050565b6000809054906101000a900473ffffffffffffffffffffffffffffffffffffffff1673ffffffffffffffffffffffffffffffffffffffff163373ffffffffffffffffffffffffffffffffffffffff16146117ea576040517f08c379a000000000000000000000000000000000000000000000000000000000815260040180806020018281038252601c8152602001807f6d657373616765206572726f723a206e6f6e20736569206f776e65720000000081525060200191505060405180910390fd5b600860008154809291906001019190505550600a60008154809291906001019190505550600160096000600854815260200190815260200160002060006101000a81548160ff0219169083151502179055506040518060c001604052806008548152602001848152602001838152602001428152602001600115158152602001828152506007600060085481526020019081526020016000206000820151816000015560208201518160010190805190602001906118a9929190611ff3565b50604082015181600201556060820151816003015560808201518160040160006101000a81548160ff02191690831515021790555060a08201518160050155905050505050565b6010602052806000526040600020600091509050806000015490806001018054600181600116156101000203166002900480601f0160208091040260200160405190810160405280929190818152602001828054600181600116156101000203166002900480156119a25780601f10611977576101008083540402835291602001916119a2565b820191906000526020600020905b81548152906001019060200180831161198557829003601f168201915b5050505050908060020154908060030160009054906101000a900473ffffffffffffffffffffffffffffffffffffffff16908060040154905085565b6007602052806000526040600020600091509050806000015490806001018054600181600116156101000203166002900480601f016020809104026020016040519081016040528092919081815260200182805460018160011615610100020316600290048015611a905780601f10611a6557610100808354040283529160200191611a90565b820191906000526020600020905b815481529060010190602001808311611a7357829003601f168201915b5050505050908060020154908060030154908060040160009054906101000a900460ff16908060050154905086565b600160009054906101000a900473ffffffffffffffffffffffffffffffffffffffff1681565b600080600080600190506000600190505b6003548111611d94576000600260008381526020019081526020016000206000015490506007600082815260200190815260200160002060040160009054906101000a900460ff1615611d86578660026000848152602001908152602001600020600001541415611d855760016002600084815260200190815260200160002060040160016101000a81548160ff0219169083151502179055506007600082815260200190815260200160002060020154600260008481526020019081526020016000206003015410611d55578360026000848152602001908152602001600020600201541080611beb575060011515831515145b15611cbb5760026000838152602001908152602001600020600201549350600015158315151415611caf576002600086815260200190815260200160002060010160009054906101000a900473ffffffffffffffffffffffffffffffffffffffff1673ffffffffffffffffffffffffffffffffffffffff166108fc600e6000888152602001908152602001600020549081150290604051600060405180830381858888f19350505050506000600e6000878152602001908152602001600020819055505b81945060009250611d54565b6002600083815260200190815260200160002060010160009054906101000a900473ffffffffffffffffffffffffffffffffffffffff1673ffffffffffffffffffffffffffffffffffffffff166108fc600e6000858152602001908152602001600020549081150290604051600060405180830381858888f19350505050506000600e6000848152602001908152602001600020819055505b5b60016002600084815260200190815260200160002060040160016101000a81548160ff0219169083151502179055505b5b508080600101915050611af6565b50829350505050919050565b600d600081548092919060010191905055506040518060e00160405280838152602001600760008581526020019081526020016000206001018054600181600116156101000203166002900480601f016020809104026020016040519081016040528092919081815260200182805460018160011615610100020316600290048015611e6d5780601f10611e4257610100808354040283529160200191611e6d565b820191906000526020600020905b815481529060010190602001808311611e5057829003601f168201915b50505050508152602001600260008481526020019081526020016000206003015481526020016002600084815260200190815260200160002060010160009054906101000a900473ffffffffffffffffffffffffffffffffffffffff1673ffffffffffffffffffffffffffffffffffffffff16815260200142815260200160001515815260200160001515815250600c6000600d548152602001908152602001600020600082015181600001556020820151816001019080519060200190611f36929190611ff3565b506040820151816002015560608201518160030160006101000a81548173ffffffffffffffffffffffffffffffffffffffff021916908373ffffffffffffffffffffffffffffffffffffffff1602179055506080820151816004015560a08201518160050160006101000a81548160ff02191690831515021790555060c08201518160050160016101000a81548160ff021916908315150217905550905050600d54600f6000848152602001908152602001600020819055505050565b828054600181600116156101000203166002900490600052602060002090601f016020900481019282601f1061203457805160ff1916838001178555612062565b82800160010185558215612062579182015b82811115612061578251825591602001919060010190612046565b5b50905061206f9190612073565b5090565b61209591905b80821115612091576000816000905550600101612079565b5090565b9056fea165627a7a72305820c50780a7d65b72c7edb206b7fcdd4affa73f5d0fa88e1936fea15313396a07d50029",
  "source": "pragma solidity ^0.5.6;\n\ncontract Punto0 {\n\n    struct Offerta{\n        uint idRichiesta;\n        address payable offerente;\n        uint prezzo;\n        uint quality;\n        bool vincente;\n        bool terminata;\n        string name;\n        uint coordinate;\n    }\n\n    struct Richiesta{\n        uint id;\n        string name;\n        uint quality;\n        uint timestamp;\n        bool attiva;\n        uint quantity;\n    }\n\n    struct Ordine{\n      uint idRichiesta;\n      string name;\n      uint quality;\n      address fornitore;\n      uint timestamp;\n      bool spedito;\n      bool checkCir;\n    }\n\n    struct Ingrediente{\n      uint id;\n      string name;\n      uint cordinate;\n      address fornitore;\n      uint quantity;\n    }\n\n    //creatore del contratto, Cir in questo caso, sar l'unico autorizzato ad accedere a determinate funzioni\n    address public owner;\n    address public contractAddress;\n\n\n    //mapping delle offerte, uint indici delle offerte; bidder[uint]\n    mapping(uint => Offerta) public bidder;\n    uint public bidderCount;\n\n    string public prova1;\n\n    mapping(address => bool) public alreadyBidder;\n\n    //mapping delle offerte vincitrici per ogni richiesta, indici delle richieste corrispondono idici offerte vincenti\n    mapping(uint => uint) public winnerOf;\n\n\n    //ad ogni intero corrisponde una richiesta, mappa delle richieste, request[uint]\n    mapping(uint => Richiesta) public request;\n    uint public requestCount;\n\n\n    mapping(uint => bool) public activeRequest;\n    uint public activeRequestCount;\n\n\n    //almeno un'offerta per ogni Richiesta, stesso array di request che torna bool(superfluo)\n    mapping(uint => bool) public existRequest;\n\n    //mapping degli indici degli ordini, order[uint]\n    mapping(uint => Ordine) public order;\n    uint public orderCount;\n\n    //mapping indici offerte e relativi value\n    mapping(uint => uint) public valueOfBid;\n\n\n    //da id richiesta e id ordine, indice richiesta corrisponde indice ordine, request[uint1]->order[uint2]\n    mapping(uint => uint) public requestToOrder;\n\n    mapping(uint => Ingrediente) public listOfIngredients;\n    uint public ingredienteCount;\n  \n\n    constructor() public {\n      owner= msg.sender;\n\n      contractAddress = address(this);\n      /////new try\n      //addRequest(\"sale\", 1);\n   }\n\n\n    //  event\n        /*event offertEvent (\n            uint indexed _requestId\n        );*/\n\n    //variabili locali con _\n    function addRequest (string memory _name, uint _quality, uint _quantity) public              {\n        require(msg.sender == owner, \"message error: non sei owner\");\n        //require(_quality >=1 && _quality <=5, \"message error: _idRichiesta > 0\");\n\n        requestCount++;\n        activeRequestCount++;\n        activeRequest[requestCount] = true;\n        request[requestCount] = Richiesta(requestCount, _name, _quality, block.timestamp, true, _quantity);\n    }\n\n\n    function addOffer(uint _idRichiesta, uint _offerta, uint _quality, uint _coordinate) public{\n\n      require(_idRichiesta > 0 && _idRichiesta <= requestCount);\n      require(request[_idRichiesta].attiva);\n      require(request[requestCount].attiva);\n\n      bidderCount++;\n      bidder[bidderCount] = Offerta(_idRichiesta, msg.sender, _offerta, _quality, false, false, request[_idRichiesta].name, _coordinate);\n      existRequest[_idRichiesta] = true;\n\n      //emit offertEvent(_idRichiesta);\n\n}\n\n\n\n\n// function addOfferPay(uint _idRichiesta, uint _offerta, uint _quality) public payable{\n\n//   require(_idRichiesta > 0, \"message error: _idRichiesta > 0\");\n//   require(_idRichiesta <= requestCount, \"message error: _idRichiesta <= requestCount\");\n//   require(request[_idRichiesta].attiva, \"message error: request[_idRichiesta].attiva\");\n//   require( _offerta >= request[_idRichiesta].quality, \"message error: quality not enough\");\n\n//   bidderCount++;\n\n//   valueOfBid[bidderCount]= msg.value;\n\n//   bidder[bidderCount] = Offerta(_idRichiesta, msg.sender, _offerta, _quality, false, false, request[_idRichiesta].name);\n//   existRequest[_idRichiesta] = true;\n\n//   //emit offertEvent(_idRichiesta);\n\n// }\n\n\n\n    //chiudi richiesta, al momneto manuale ma si pu automatizzare\n    function endRequest(uint _idRichiesta) public{\n      require(msg.sender == owner);\n      require(_idRichiesta > 0 && _idRichiesta <= requestCount);\n      require(request[_idRichiesta].attiva = true);\n\n\n      uint vincitore = selectWinner(_idRichiesta);\n      bidder[vincitore].vincente = true;\n      winnerOf[_idRichiesta] = vincitore;\n\n\n      request[_idRichiesta].attiva = false;\n      activeRequest[_idRichiesta] = false;\n      emettiOrdine(_idRichiesta, vincitore);\n    }\n\n\n\n    function selectWinner(uint _idRichiesta) private returns (uint){\n      uint vincitore;\n      uint prezzoMinore;\n      bool primogiro=true;\n      //si elaborano tutte le offerte relative a quella richiesta.\n      //totalmente inefficiente, momentaneo\n\n      for(uint i=1; i <= bidderCount; i++ ){\n\n              //patch momentanea\n\n        uint tmp = bidder[i].idRichiesta;\n\n        if (request[tmp].attiva) {\n        //se offerta relativa alla richiesta in esame\n        if (bidder[i].idRichiesta == _idRichiesta){\n                    bidder[i].terminata = true;\n\n          if (bidder[i].quality >= request[tmp].quality){\n          //se offerta migliore della precedente\n          if (bidder[i].prezzo < prezzoMinore || primogiro==true){\n            prezzoMinore = bidder[i].prezzo;\n            if (primogiro == false){\n              //se non vincente restituisce caparra\n              bidder[vincitore].offerente.send(valueOfBid[vincitore]);\n              valueOfBid[vincitore] = 0;\n            }\n            vincitore = i;\n            primogiro=false;\n          }\n          else {\n          bidder[i].offerente.send(valueOfBid[i]);\n          valueOfBid[i]=0;\n          }\n          }\n          //aggiornato:\n          bidder[i].terminata = true;\n          \n        }\n        }\n      }\n      return vincitore;\n    }\n\n    //al momento della chiusura della richiesta vengono elaborati i dati del vincitore e viene emesso l'ordine\n    function emettiOrdine(uint _idRichiesta, uint _idOfferta) private {\n      orderCount++;\n      order[orderCount] = Ordine(_idRichiesta, request[_idRichiesta].name, bidder[_idOfferta].quality, bidder[_idOfferta].offerente, block.timestamp, false, false );\n      requestToOrder[_idRichiesta] = orderCount;\n      }\n\n    //il fornitore riceve l'ordine, lo elabora e lo spedisce, vi accede tramite l'id della richiesta iniziale\n    function checkFornitore (uint _idRichiesta) public {\n      require(msg.sender == bidder[winnerOf[_idRichiesta]].offerente);\n      uint idOrder = requestToOrder[_idRichiesta];\n      order[idOrder].spedito = true;\n    }\n\n    //magazziniere, che per il momento ha lo stesso address dell'ufficio acquisti riceve la merce e certifica che sia tutto corretto\n    function checkCir (uint _idRichiesta, bool _check) public {\n      require(msg.sender == owner);\n      uint idOrder = requestToOrder[_idRichiesta];\n        if (_check == true){\n        order[idOrder].checkCir = true;\n        bidder[idOrder].offerente.send(valueOfBid[idOrder]);\n        setStorage(order[idOrder].name, bidder[winnerOf[_idRichiesta]].coordinate , order[idOrder].fornitore, request[_idRichiesta].quantity);\n      }\n        else{\n          //scatena evento reclamo..\n        }\n    }\n\n\n    function setStorage (string  memory _nome, uint  _coordinate, address _fornitore, uint _quantity) public  {\n      ingredienteCount++;\n      listOfIngredients[ingredienteCount]=Ingrediente(ingredienteCount, _nome, _coordinate, _fornitore, _quantity);\n      }\n\n\n\n}\n",
  "sourcePath": "/Users/simone/Desktop/fusion/contracts/Punto0.sol",
  "compiler": {
    "name": "solc",
    "version": "0.5.6+commit.b259423e.Emscripten.clang"
  },
  "schemaVersion": "3.0.0-beta.2",
  "updatedAt": "2019-04-29T10:26:39.563Z",
  "devdoc": {
    "methods": {}
  },
  "userdoc": {
    "methods": {}
  }
}