{
  "contractName": "RequestToOrder",
  "abi": [
    {
      "constant": true,
      "inputs": [
        {
          "name": "",
          "type": "uint256"
        }
      ],
      "name": "activeRequest",
      "outputs": [
        {
          "name": "",
          "type": "bool"
        }
      ],
      "payable": false,
      "stateMutability": "view",
      "type": "function",
      "signature": "0x05d4b35a"
    },
    {
      "constant": true,
      "inputs": [
        {
          "name": "",
          "type": "uint256"
        }
      ],
      "name": "order",
      "outputs": [
        {
          "name": "idRichiesta",
          "type": "uint256"
        },
        {
          "name": "name",
          "type": "string"
        },
        {
          "name": "quality",
          "type": "uint256"
        },
        {
          "name": "fornitore",
          "type": "address"
        },
        {
          "name": "timestamp",
          "type": "uint256"
        },
        {
          "name": "spedito",
          "type": "bool"
        },
        {
          "name": "checkCir",
          "type": "bool"
        }
      ],
      "payable": false,
      "stateMutability": "view",
      "type": "function",
      "signature": "0x21603f43"
    },
    {
      "constant": true,
      "inputs": [],
      "name": "orderCount",
      "outputs": [
        {
          "name": "",
          "type": "uint256"
        }
      ],
      "payable": false,
      "stateMutability": "view",
      "type": "function",
      "signature": "0x2453ffa8"
    },
    {
      "constant": true,
      "inputs": [
        {
          "name": "",
          "type": "uint256"
        }
      ],
      "name": "existRequest",
      "outputs": [
        {
          "name": "",
          "type": "bool"
        }
      ],
      "payable": false,
      "stateMutability": "view",
      "type": "function",
      "signature": "0x24a68ad4"
    },
    {
      "constant": true,
      "inputs": [
        {
          "name": "",
          "type": "uint256"
        }
      ],
      "name": "valueOfBid",
      "outputs": [
        {
          "name": "",
          "type": "uint256"
        }
      ],
      "payable": false,
      "stateMutability": "view",
      "type": "function",
      "signature": "0x2824aeed"
    },
    {
      "constant": true,
      "inputs": [
        {
          "name": "",
          "type": "uint256"
        }
      ],
      "name": "requestToOrder",
      "outputs": [
        {
          "name": "",
          "type": "uint256"
        }
      ],
      "payable": false,
      "stateMutability": "view",
      "type": "function",
      "signature": "0x32010df8"
    },
    {
      "constant": true,
      "inputs": [],
      "name": "requestCount",
      "outputs": [
        {
          "name": "",
          "type": "uint256"
        }
      ],
      "payable": false,
      "stateMutability": "view",
      "type": "function",
      "signature": "0x5badbe4c"
    },
    {
      "constant": true,
      "inputs": [],
      "name": "bidderCount",
      "outputs": [
        {
          "name": "",
          "type": "uint256"
        }
      ],
      "payable": false,
      "stateMutability": "view",
      "type": "function",
      "signature": "0x70d29c11"
    },
    {
      "constant": true,
      "inputs": [],
      "name": "ingredienteCount",
      "outputs": [
        {
          "name": "",
          "type": "uint256"
        }
      ],
      "payable": false,
      "stateMutability": "view",
      "type": "function",
      "signature": "0x79439842"
    },
    {
      "constant": true,
      "inputs": [
        {
          "name": "",
          "type": "address"
        }
      ],
      "name": "alreadyBidder",
      "outputs": [
        {
          "name": "",
          "type": "bool"
        }
      ],
      "payable": false,
      "stateMutability": "view",
      "type": "function",
      "signature": "0x7a8eb68c"
    },
    {
      "constant": true,
      "inputs": [
        {
          "name": "",
          "type": "uint256"
        }
      ],
      "name": "bidder",
      "outputs": [
        {
          "name": "idRichiesta",
          "type": "uint256"
        },
        {
          "name": "offerente",
          "type": "address"
        },
        {
          "name": "prezzo",
          "type": "uint256"
        },
        {
          "name": "quality",
          "type": "uint256"
        },
        {
          "name": "vincente",
          "type": "bool"
        },
        {
          "name": "terminata",
          "type": "bool"
        },
        {
          "name": "name",
          "type": "string"
        },
        {
          "name": "coordinate",
          "type": "uint256"
        }
      ],
      "payable": false,
      "stateMutability": "view",
      "type": "function",
      "signature": "0x8b3a5fd9"
    },
    {
      "constant": true,
      "inputs": [
        {
          "name": "",
          "type": "uint256"
        }
      ],
      "name": "winnerOf",
      "outputs": [
        {
          "name": "",
          "type": "uint256"
        }
      ],
      "payable": false,
      "stateMutability": "view",
      "type": "function",
      "signature": "0x8cb5d700"
    },
    {
      "constant": true,
      "inputs": [],
      "name": "owner",
      "outputs": [
        {
          "name": "",
          "type": "address"
        }
      ],
      "payable": false,
      "stateMutability": "view",
      "type": "function",
      "signature": "0x8da5cb5b"
    },
    {
      "constant": true,
      "inputs": [],
      "name": "activeRequestCount",
      "outputs": [
        {
          "name": "",
          "type": "uint256"
        }
      ],
      "payable": false,
      "stateMutability": "view",
      "type": "function",
      "signature": "0x954d046a"
    },
    {
      "constant": true,
      "inputs": [
        {
          "name": "",
          "type": "uint256"
        }
      ],
      "name": "listOfIngredients",
      "outputs": [
        {
          "name": "id",
          "type": "uint256"
        },
        {
          "name": "name",
          "type": "string"
        },
        {
          "name": "cordinate",
          "type": "uint256"
        },
        {
          "name": "fornitore",
          "type": "address"
        },
        {
          "name": "quantity",
          "type": "uint256"
        }
      ],
      "payable": false,
      "stateMutability": "view",
      "type": "function",
      "signature": "0x9f989ce8"
    },
    {
      "constant": true,
      "inputs": [
        {
          "name": "",
          "type": "uint256"
        }
      ],
      "name": "request",
      "outputs": [
        {
          "name": "id",
          "type": "uint256"
        },
        {
          "name": "name",
          "type": "string"
        },
        {
          "name": "quality",
          "type": "uint256"
        },
        {
          "name": "timestamp",
          "type": "uint256"
        },
        {
          "name": "attiva",
          "type": "bool"
        },
        {
          "name": "quantity",
          "type": "uint256"
        }
      ],
      "payable": false,
      "stateMutability": "view",
      "type": "function",
      "signature": "0xd845a4b3"
    },
    {
      "constant": true,
      "inputs": [],
      "name": "contractAddress",
      "outputs": [
        {
          "name": "",
          "type": "address"
        }
      ],
      "payable": false,
      "stateMutability": "view",
      "type": "function",
      "signature": "0xf6b4dfb4"
    },
    {
      "inputs": [],
      "payable": false,
      "stateMutability": "nonpayable",
      "type": "constructor",
      "signature": "constructor"
    },
    {
      "constant": false,
      "inputs": [
        {
          "name": "_name",
          "type": "string"
        },
        {
          "name": "_quality",
          "type": "uint256"
        },
        {
          "name": "_quantity",
          "type": "uint256"
        }
      ],
      "name": "addRequest",
      "outputs": [],
      "payable": false,
      "stateMutability": "nonpayable",
      "type": "function",
      "signature": "0x9e0591fd"
    },
    {
      "constant": false,
      "inputs": [
        {
          "name": "_idRichiesta",
          "type": "uint256"
        },
        {
          "name": "_offerta",
          "type": "uint256"
        },
        {
          "name": "_quality",
          "type": "uint256"
        },
        {
          "name": "_coordinate",
          "type": "uint256"
        }
      ],
      "name": "addOffer",
      "outputs": [],
      "payable": false,
      "stateMutability": "nonpayable",
      "type": "function",
      "signature": "0x412225c4"
    },
    {
      "constant": false,
      "inputs": [
        {
          "name": "_idRichiesta",
          "type": "uint256"
        }
      ],
      "name": "endRequest",
      "outputs": [],
      "payable": false,
      "stateMutability": "nonpayable",
      "type": "function",
      "signature": "0x17f44048"
    },
    {
      "constant": false,
      "inputs": [
        {
          "name": "_idRichiesta",
          "type": "uint256"
        }
      ],
      "name": "checkFornitore",
      "outputs": [],
      "payable": false,
      "stateMutability": "nonpayable",
      "type": "function",
      "signature": "0x9c199da3"
    },
    {
      "constant": false,
      "inputs": [
        {
          "name": "_idRichiesta",
          "type": "uint256"
        },
        {
          "name": "_check",
          "type": "bool"
        }
      ],
      "name": "checkCir",
      "outputs": [],
      "payable": false,
      "stateMutability": "nonpayable",
      "type": "function",
      "signature": "0x9d6040f1"
    },
    {
      "constant": false,
      "inputs": [
        {
          "name": "_nome",
          "type": "string"
        },
        {
          "name": "_coordinate",
          "type": "uint256"
        },
        {
          "name": "_fornitore",
          "type": "address"
        },
        {
          "name": "_quantity",
          "type": "uint256"
        }
      ],
      "name": "setStorage",
      "outputs": [],
      "payable": false,
      "stateMutability": "nonpayable",
      "type": "function",
      "signature": "0x3bc3ba40"
    }
  ],
  "bytecode": "0x608060405234801561001057600080fd5b50336000806101000a81548173ffffffffffffffffffffffffffffffffffffffff021916908373ffffffffffffffffffffffffffffffffffffffff16021790555030600160006101000a81548173ffffffffffffffffffffffffffffffffffffffff021916908373ffffffffffffffffffffffffffffffffffffffff160217905550611f98806100a16000396000f3fe608060405234801561001057600080fd5b506004361061016a576000357c01000000000000000000000000000000000000000000000000000000009004806379439842116100e05780639c199da3116100995780639c199da3146107775780639d6040f1146107a55780639e0591fd146107df5780639f989ce8146108ae578063d845a4b31461099d578063f6b4dfb414610a6b5761016a565b806379439842146105475780637a8eb68c146105655780638b3a5fd9146105c15780638cb5d700146106cd5780638da5cb5b1461070f578063954d046a146107595761016a565b80632824aeed116101325780632824aeed1461034c57806332010df81461038e5780633bc3ba40146103d0578063412225c4146104bf5780635badbe4c1461050b57806370d29c11146105295761016a565b806305d4b35a1461016f57806317f44048146101b557806321603f43146101e35780632453ffa8146102e857806324a68ad414610306575b600080fd5b61019b6004803603602081101561018557600080fd5b8101908080359060200190929190505050610ab5565b604051808215151515815260200191505060405180910390f35b6101e1600480360360208110156101cb57600080fd5b8101908080359060200190929190505050610ad5565b005b61020f600480360360208110156101f957600080fd5b8101908080359060200190929190505050610c3d565b60405180888152602001806020018781526020018673ffffffffffffffffffffffffffffffffffffffff1673ffffffffffffffffffffffffffffffffffffffff1681526020018581526020018415151515815260200183151515158152602001828103825288818151815260200191508051906020019080838360005b838110156102a757808201518184015260208101905061028c565b50505050905090810190601f1680156102d45780820380516001836020036101000a031916815260200191505b509850505050505050505060405180910390f35b6102f0610d51565b6040518082815260200191505060405180910390f35b6103326004803603602081101561031c57600080fd5b8101908080359060200190929190505050610d57565b604051808215151515815260200191505060405180910390f35b6103786004803603602081101561036257600080fd5b8101908080359060200190929190505050610d77565b6040518082815260200191505060405180910390f35b6103ba600480360360208110156103a457600080fd5b8101908080359060200190929190505050610d8f565b6040518082815260200191505060405180910390f35b6104bd600480360360808110156103e657600080fd5b810190808035906020019064010000000081111561040357600080fd5b82018360208201111561041557600080fd5b8035906020019184600183028401116401000000008311171561043757600080fd5b91908080601f016020809104026020016040519081016040528093929190818152602001838380828437600081840152601f19601f82011690508083019250505050505050919291929080359060200190929190803573ffffffffffffffffffffffffffffffffffffffff16906020019092919080359060200190929190505050610da7565b005b610509600480360360808110156104d557600080fd5b8101908080359060200190929190803590602001909291908035906020019092919080359060200190929190505050610e98565b005b61051361113b565b6040518082815260200191505060405180910390f35b610531611141565b6040518082815260200191505060405180910390f35b61054f611147565b6040518082815260200191505060405180910390f35b6105a76004803603602081101561057b57600080fd5b81019080803573ffffffffffffffffffffffffffffffffffffffff16906020019092919050505061114d565b604051808215151515815260200191505060405180910390f35b6105ed600480360360208110156105d757600080fd5b810190808035906020019092919050505061116d565b604051808981526020018873ffffffffffffffffffffffffffffffffffffffff1673ffffffffffffffffffffffffffffffffffffffff168152602001878152602001868152602001851515151581526020018415151515815260200180602001838152602001828103825284818151815260200191508051906020019080838360005b8381101561068b578082015181840152602081019050610670565b50505050905090810190601f1680156106b85780820380516001836020036101000a031916815260200191505b50995050505050505050505060405180910390f35b6106f9600480360360208110156106e357600080fd5b8101908080359060200190929190505050611287565b6040518082815260200191505060405180910390f35b61071761129f565b604051808273ffffffffffffffffffffffffffffffffffffffff1673ffffffffffffffffffffffffffffffffffffffff16815260200191505060405180910390f35b6107616112c4565b6040518082815260200191505060405180910390f35b6107a36004803603602081101561078d57600080fd5b81019080803590602001909291905050506112ca565b005b6107dd600480360360408110156107bb57600080fd5b8101908080359060200190929190803515159060200190929190505050611396565b005b6108ac600480360360608110156107f557600080fd5b810190808035906020019064010000000081111561081257600080fd5b82018360208201111561082457600080fd5b8035906020019184600183028401116401000000008311171561084657600080fd5b91908080601f016020809104026020016040519081016040528093929190818152602001838380828437600081840152601f19601f82011690508083019250505050505050919291929080359060200190929190803590602001909291905050506115fc565b005b6108da600480360360208110156108c457600080fd5b81019080803590602001909291905050506117c4565b60405180868152602001806020018581526020018473ffffffffffffffffffffffffffffffffffffffff1673ffffffffffffffffffffffffffffffffffffffff168152602001838152602001828103825286818151815260200191508051906020019080838360005b8381101561095e578082015181840152602081019050610943565b50505050905090810190601f16801561098b5780820380516001836020036101000a031916815260200191505b50965050505050505060405180910390f35b6109c9600480360360208110156109b357600080fd5b81019080803590602001909291905050506118b2565b604051808781526020018060200186815260200185815260200184151515158152602001838152602001828103825287818151815260200191508051906020019080838360005b83811015610a2b578082015181840152602081019050610a10565b50505050905090810190601f168015610a585780820380516001836020036101000a031916815260200191505b5097505050505050505060405180910390f35b610a73611993565b604051808273ffffffffffffffffffffffffffffffffffffffff1673ffffffffffffffffffffffffffffffffffffffff16815260200191505060405180910390f35b60086020528060005260406000206000915054906101000a900460ff1681565b6000809054906101000a900473ffffffffffffffffffffffffffffffffffffffff1673ffffffffffffffffffffffffffffffffffffffff163373ffffffffffffffffffffffffffffffffffffffff1614610b2e57600080fd5b600081118015610b4057506007548111155b610b4957600080fd5b60016006600083815260200190815260200160002060040160006101000a81548160ff0219169083151502179055610b8057600080fd5b6000610b8b826119b9565b905060016002600083815260200190815260200160002060040160006101000a81548160ff02191690831515021790555080600560008481526020019081526020016000208190555060006006600084815260200190815260200160002060040160006101000a81548160ff02191690831515021790555060006008600084815260200190815260200160002060006101000a81548160ff021916908315150217905550610c398282611c74565b5050565b600b602052806000526040600020600091509050806000015490806001018054600181600116156101000203166002900480601f016020809104026020016040519081016040528092919081815260200182805460018160011615610100020316600290048015610cef5780601f10610cc457610100808354040283529160200191610cef565b820191906000526020600020905b815481529060010190602001808311610cd257829003601f168201915b5050505050908060020154908060030160009054906101000a900473ffffffffffffffffffffffffffffffffffffffff16908060040154908060050160009054906101000a900460ff16908060050160019054906101000a900460ff16905087565b600c5481565b600a6020528060005260406000206000915054906101000a900460ff1681565b600d6020528060005260406000206000915090505481565b600e6020528060005260406000206000915090505481565b6010600081548092919060010191905055506040518060a0016040528060105481526020018581526020018481526020018373ffffffffffffffffffffffffffffffffffffffff16815260200182815250600f60006010548152602001908152602001600020600082015181600001556020820151816001019080519060200190610e33929190611ec7565b506040820151816002015560608201518160030160006101000a81548173ffffffffffffffffffffffffffffffffffffffff021916908373ffffffffffffffffffffffffffffffffffffffff1602179055506080820151816004015590505050505050565b600084118015610eaa57506007548411155b610eb357600080fd5b6006600085815260200190815260200160002060040160009054906101000a900460ff16610ee057600080fd5b60066000600754815260200190815260200160002060040160009054906101000a900460ff16610f0f57600080fd5b6003600081548092919060010191905055506040518061010001604052808581526020013373ffffffffffffffffffffffffffffffffffffffff168152602001848152602001838152602001600015158152602001600015158152602001600660008781526020019081526020016000206001018054600181600116156101000203166002900480601f0160208091040260200160405190810160405280929190818152602001828054600181600116156101000203166002900480156110175780601f10610fec57610100808354040283529160200191611017565b820191906000526020600020905b815481529060010190602001808311610ffa57829003601f168201915b50505050508152602001828152506002600060035481526020019081526020016000206000820151816000015560208201518160010160006101000a81548173ffffffffffffffffffffffffffffffffffffffff021916908373ffffffffffffffffffffffffffffffffffffffff160217905550604082015181600201556060820151816003015560808201518160040160006101000a81548160ff02191690831515021790555060a08201518160040160016101000a81548160ff02191690831515021790555060c08201518160050190805190602001906110fb929190611ec7565b5060e082015181600601559050506001600a600086815260200190815260200160002060006101000a81548160ff02191690831515021790555050505050565b60075481565b60035481565b60105481565b60046020528060005260406000206000915054906101000a900460ff1681565b60026020528060005260406000206000915090508060000154908060010160009054906101000a900473ffffffffffffffffffffffffffffffffffffffff16908060020154908060030154908060040160009054906101000a900460ff16908060040160019054906101000a900460ff1690806005018054600181600116156101000203166002900480601f0160208091040260200160405190810160405280929190818152602001828054600181600116156101000203166002900480156112775780601f1061124c57610100808354040283529160200191611277565b820191906000526020600020905b81548152906001019060200180831161125a57829003601f168201915b5050505050908060060154905088565b60056020528060005260406000206000915090505481565b6000809054906101000a900473ffffffffffffffffffffffffffffffffffffffff1681565b60095481565b600260006005600084815260200190815260200160002054815260200190815260200160002060010160009054906101000a900473ffffffffffffffffffffffffffffffffffffffff1673ffffffffffffffffffffffffffffffffffffffff163373ffffffffffffffffffffffffffffffffffffffff161461134b57600080fd5b6000600e60008381526020019081526020016000205490506001600b600083815260200190815260200160002060050160006101000a81548160ff0219169083151502179055505050565b6000809054906101000a900473ffffffffffffffffffffffffffffffffffffffff1673ffffffffffffffffffffffffffffffffffffffff163373ffffffffffffffffffffffffffffffffffffffff16146113ef57600080fd5b6000600e60008481526020019081526020016000205490506001151582151514156115f6576001600b600083815260200190815260200160002060050160016101000a81548160ff0219169083151502179055506002600082815260200190815260200160002060010160009054906101000a900473ffffffffffffffffffffffffffffffffffffffff1673ffffffffffffffffffffffffffffffffffffffff166108fc600d6000848152602001908152602001600020549081150290604051600060405180830381858888f19350505050506115f1600b60008381526020019081526020016000206001018054600181600116156101000203166002900480601f01602080910402602001604051908101604052809291908181526020018280546001816001161561010002031660029004801561156f5780601f106115445761010080835404028352916020019161156f565b820191906000526020600020905b81548152906001019060200180831161155257829003601f168201915b5050505050600260006005600088815260200190815260200160002054815260200190815260200160002060060154600b600085815260200190815260200160002060030160009054906101000a900473ffffffffffffffffffffffffffffffffffffffff166006600088815260200190815260200160002060050154610da7565b6115f7565b5b505050565b6000809054906101000a900473ffffffffffffffffffffffffffffffffffffffff1673ffffffffffffffffffffffffffffffffffffffff163373ffffffffffffffffffffffffffffffffffffffff16146116be576040517f08c379a000000000000000000000000000000000000000000000000000000000815260040180806020018281038252601c8152602001807f6d657373616765206572726f723a206e6f6e20736569206f776e65720000000081525060200191505060405180910390fd5b600760008154809291906001019190505550600960008154809291906001019190505550600160086000600754815260200190815260200160002060006101000a81548160ff0219169083151502179055506040518060c0016040528060075481526020018481526020018381526020014281526020016001151581526020018281525060066000600754815260200190815260200160002060008201518160000155602082015181600101908051906020019061177d929190611ec7565b50604082015181600201556060820151816003015560808201518160040160006101000a81548160ff02191690831515021790555060a08201518160050155905050505050565b600f602052806000526040600020600091509050806000015490806001018054600181600116156101000203166002900480601f0160208091040260200160405190810160405280929190818152602001828054600181600116156101000203166002900480156118765780601f1061184b57610100808354040283529160200191611876565b820191906000526020600020905b81548152906001019060200180831161185957829003601f168201915b5050505050908060020154908060030160009054906101000a900473ffffffffffffffffffffffffffffffffffffffff16908060040154905085565b6006602052806000526040600020600091509050806000015490806001018054600181600116156101000203166002900480601f0160208091040260200160405190810160405280929190818152602001828054600181600116156101000203166002900480156119645780601f1061193957610100808354040283529160200191611964565b820191906000526020600020905b81548152906001019060200180831161194757829003601f168201915b5050505050908060020154908060030154908060040160009054906101000a900460ff16908060050154905086565b600160009054906101000a900473ffffffffffffffffffffffffffffffffffffffff1681565b600080600080600190506000600190505b6003548111611c68576000600260008381526020019081526020016000206000015490506006600082815260200190815260200160002060040160009054906101000a900460ff1615611c5a578660026000848152602001908152602001600020600001541415611c595760016002600084815260200190815260200160002060040160016101000a81548160ff0219169083151502179055506006600082815260200190815260200160002060020154600260008481526020019081526020016000206003015410611c29578360026000848152602001908152602001600020600201541080611abf575060011515831515145b15611b8f5760026000838152602001908152602001600020600201549350600015158315151415611b83576002600086815260200190815260200160002060010160009054906101000a900473ffffffffffffffffffffffffffffffffffffffff1673ffffffffffffffffffffffffffffffffffffffff166108fc600d6000888152602001908152602001600020549081150290604051600060405180830381858888f19350505050506000600d6000878152602001908152602001600020819055505b81945060009250611c28565b6002600083815260200190815260200160002060010160009054906101000a900473ffffffffffffffffffffffffffffffffffffffff1673ffffffffffffffffffffffffffffffffffffffff166108fc600d6000858152602001908152602001600020549081150290604051600060405180830381858888f19350505050506000600d6000848152602001908152602001600020819055505b5b60016002600084815260200190815260200160002060040160016101000a81548160ff0219169083151502179055505b5b5080806001019150506119ca565b50829350505050919050565b600c600081548092919060010191905055506040518060e00160405280838152602001600660008581526020019081526020016000206001018054600181600116156101000203166002900480601f016020809104026020016040519081016040528092919081815260200182805460018160011615610100020316600290048015611d415780601f10611d1657610100808354040283529160200191611d41565b820191906000526020600020905b815481529060010190602001808311611d2457829003601f168201915b50505050508152602001600260008481526020019081526020016000206003015481526020016002600084815260200190815260200160002060010160009054906101000a900473ffffffffffffffffffffffffffffffffffffffff1673ffffffffffffffffffffffffffffffffffffffff16815260200142815260200160001515815260200160001515815250600b6000600c548152602001908152602001600020600082015181600001556020820151816001019080519060200190611e0a929190611ec7565b506040820151816002015560608201518160030160006101000a81548173ffffffffffffffffffffffffffffffffffffffff021916908373ffffffffffffffffffffffffffffffffffffffff1602179055506080820151816004015560a08201518160050160006101000a81548160ff02191690831515021790555060c08201518160050160016101000a81548160ff021916908315150217905550905050600c54600e6000848152602001908152602001600020819055505050565b828054600181600116156101000203166002900490600052602060002090601f016020900481019282601f10611f0857805160ff1916838001178555611f36565b82800160010185558215611f36579182015b82811115611f35578251825591602001919060010190611f1a565b5b509050611f439190611f47565b5090565b611f6991905b80821115611f65576000816000905550600101611f4d565b5090565b9056fea165627a7a72305820f96575c5dcb9fd8236dd012d629b8c73af3f1a30e3f230b09bbf0249aa9102040029",
  "source": "pragma solidity ^0.5.6;\n\ncontract RequestToOrder {\n\n    struct Offerta{\n        uint idRichiesta;\n        address payable offerente;\n        uint prezzo;\n        uint quality;\n        bool vincente;\n        bool terminata;\n        string name;\n        uint coordinate;\n    }\n\n    struct Richiesta{\n        uint id;\n        string name;\n        uint quality;\n        uint timestamp;\n        bool attiva;\n        uint quantity;\n    }\n\n    struct Ordine{\n      uint idRichiesta;\n      string name;\n      uint quality;\n      address fornitore;\n      uint timestamp;\n      bool spedito;\n      bool checkCir;\n    }\n\n    struct Ingrediente{\n      uint id;\n      string name;\n      uint cordinate;\n      address fornitore;\n      uint quantity;\n    }\n\n    //creatore del contratto, Cir in questo caso, sar l'unico autorizzato ad accedere a determinate funzioni\n    address public owner;\n    address public contractAddress;\n\n\n    //mapping delle offerte, uint indici delle offerte; bidder[uint]\n    mapping(uint => Offerta) public bidder;\n    uint public bidderCount;\n\n\n    mapping(address => bool) public alreadyBidder;\n\n    //mapping delle offerte vincitrici per ogni richiesta, indici delle richieste corrispondono idici offerte vincenti\n    mapping(uint => uint) public winnerOf;\n\n\n    //ad ogni intero corrisponde una richiesta, mappa delle richieste, request[uint]\n    mapping(uint => Richiesta) public request;\n    uint public requestCount;\n\n\n    mapping(uint => bool) public activeRequest;\n    uint public activeRequestCount;\n\n\n    //almeno un'offerta per ogni Richiesta, stesso array di request che torna bool(superfluo)\n    mapping(uint => bool) public existRequest;\n\n    //mapping degli indici degli ordini, order[uint]\n    mapping(uint => Ordine) public order;\n    uint public orderCount;\n\n    //mapping indici offerte e relativi value\n    mapping(uint => uint) public valueOfBid;\n\n\n    //da id richiesta e id ordine, indice richiesta corrisponde indice ordine, request[uint1]->order[uint2]\n    mapping(uint => uint) public requestToOrder;\n\n    mapping(uint => Ingrediente) public listOfIngredients;\n    uint public ingredienteCount;\n  \n\n    constructor() public {\n      owner= msg.sender;\n\n      contractAddress = address(this);\n      /////new try\n      //addRequest(\"sale\", 1);\n   }\n\n\n    //  event\n        /*event offertEvent (\n            uint indexed _requestId\n        );*/\n\n    //variabili locali con _\n    function addRequest (string memory _name, uint _quality, uint _quantity) public              {\n        require(msg.sender == owner, \"message error: non sei owner\");\n        //require(_quality >=1 && _quality <=5, \"message error: _idRichiesta > 0\");\n\n        requestCount++;\n        activeRequestCount++;\n        activeRequest[requestCount] = true;\n        request[requestCount] = Richiesta(requestCount, _name, _quality, block.timestamp, true, _quantity);\n    }\n\n\n    function addOffer(uint _idRichiesta, uint _offerta, uint _quality, uint _coordinate) public{\n\n      require(_idRichiesta > 0 && _idRichiesta <= requestCount);\n      require(request[_idRichiesta].attiva);\n      require(request[requestCount].attiva);\n\n      bidderCount++;\n      bidder[bidderCount] = Offerta(_idRichiesta, msg.sender, _offerta, _quality, false, false, request[_idRichiesta].name, _coordinate);\n      existRequest[_idRichiesta] = true;\n\n      //emit offertEvent(_idRichiesta);\n\n}\n\n\n\n\n// function addOfferPay(uint _idRichiesta, uint _offerta, uint _quality) public payable{\n\n//   require(_idRichiesta > 0, \"message error: _idRichiesta > 0\");\n//   require(_idRichiesta <= requestCount, \"message error: _idRichiesta <= requestCount\");\n//   require(request[_idRichiesta].attiva, \"message error: request[_idRichiesta].attiva\");\n//   require( _offerta >= request[_idRichiesta].quality, \"message error: quality not enough\");\n\n//   bidderCount++;\n\n//   valueOfBid[bidderCount]= msg.value;\n\n//   bidder[bidderCount] = Offerta(_idRichiesta, msg.sender, _offerta, _quality, false, false, request[_idRichiesta].name);\n//   existRequest[_idRichiesta] = true;\n\n//   //emit offertEvent(_idRichiesta);\n\n// }\n\n\n\n    //chiudi richiesta, al momneto manuale ma si pu automatizzare\n    function endRequest(uint _idRichiesta) public{\n      require(msg.sender == owner);\n      require(_idRichiesta > 0 && _idRichiesta <= requestCount);\n      require(request[_idRichiesta].attiva = true);\n\n\n      uint vincitore = selectWinner(_idRichiesta);\n      bidder[vincitore].vincente = true;\n      winnerOf[_idRichiesta] = vincitore;\n\n\n      request[_idRichiesta].attiva = false;\n      activeRequest[_idRichiesta] = false;\n      emettiOrdine(_idRichiesta, vincitore);\n    }\n\n\n\n    function selectWinner(uint _idRichiesta) private returns (uint){\n      uint vincitore;\n      uint prezzoMinore;\n      bool primogiro=true;\n      //si elaborano tutte le offerte relative a quella richiesta.\n      //totalmente inefficiente, momentaneo\n\n      for(uint i=1; i <= bidderCount; i++ ){\n\n              //patch momentanea\n\n        uint tmp = bidder[i].idRichiesta;\n\n        if (request[tmp].attiva) {\n        //se offerta relativa alla richiesta in esame\n        if (bidder[i].idRichiesta == _idRichiesta){\n                    bidder[i].terminata = true;\n\n          if (bidder[i].quality >= request[tmp].quality){\n          //se offerta migliore della precedente\n          if (bidder[i].prezzo < prezzoMinore || primogiro==true){\n            prezzoMinore = bidder[i].prezzo;\n            if (primogiro == false){\n              //se non vincente restituisce caparra\n              bidder[vincitore].offerente.send(valueOfBid[vincitore]);\n              valueOfBid[vincitore] = 0;\n            }\n            vincitore = i;\n            primogiro=false;\n          }\n          else {\n          bidder[i].offerente.send(valueOfBid[i]);\n          valueOfBid[i]=0;\n          }\n          }\n          //aggiornato:\n          bidder[i].terminata = true;\n          \n        }\n        }\n      }\n      return vincitore;\n    }\n\n    //al momento della chiusura della richiesta vengono elaborati i dati del vincitore e viene emesso l'ordine\n    function emettiOrdine(uint _idRichiesta, uint _idOfferta) private {\n      orderCount++;\n      order[orderCount] = Ordine(_idRichiesta, request[_idRichiesta].name, bidder[_idOfferta].quality, bidder[_idOfferta].offerente, block.timestamp, false, false );\n      requestToOrder[_idRichiesta] = orderCount;\n      }\n\n    //il fornitore riceve l'ordine, lo elabora e lo spedisce, vi accede tramite l'id della richiesta iniziale\n    function checkFornitore (uint _idRichiesta) public {\n      require(msg.sender == bidder[winnerOf[_idRichiesta]].offerente);\n      uint idOrder = requestToOrder[_idRichiesta];\n      order[idOrder].spedito = true;\n    }\n\n    //magazziniere, che per il momento ha lo stesso address dell'ufficio acquisti riceve la merce e certifica che sia tutto corretto\n    function checkCir (uint _idRichiesta, bool _check) public {\n      require(msg.sender == owner);\n      uint idOrder = requestToOrder[_idRichiesta];\n        if (_check == true){\n        order[idOrder].checkCir = true;\n        bidder[idOrder].offerente.send(valueOfBid[idOrder]);\n        setStorage(order[idOrder].name, bidder[winnerOf[_idRichiesta]].coordinate , order[idOrder].fornitore, request[_idRichiesta].quantity);\n      }\n        else{\n          //scatena evento reclamo..\n        }\n    }\n\n\n    function setStorage (string  memory _nome, uint  _coordinate, address _fornitore, uint _quantity) public  {\n      ingredienteCount++;\n      listOfIngredients[ingredienteCount]=Ingrediente(ingredienteCount, _nome, _coordinate, _fornitore, _quantity);\n      }\n\n\n\n}\n",
  "sourcePath": "/Users/simone/Desktop/fusion/contracts/RequestToOrder.sol",
  "compiler": {
    "name": "solc",
    "version": "0.5.6+commit.b259423e.Emscripten.clang"
  },
  "schemaVersion": "3.0.0-beta.2",
  "updatedAt": "2019-05-06T18:00:33.799Z",
  "devdoc": {
    "methods": {}
  },
  "userdoc": {
    "methods": {}
  }
}